{"abi":[{"type":"constructor","inputs":[{"name":"governanceToken_","type":"address","internalType":"address"},{"name":"initialOwner_","type":"address","internalType":"address"}],"stateMutability":"nonpayable"},{"type":"function","name":"APPROVAL_THRESHOLD","inputs":[],"outputs":[{"name":"","type":"uint256","internalType":"uint256"}],"stateMutability":"view"},{"type":"function","name":"QUORUM_PERCENTAGE","inputs":[],"outputs":[{"name":"","type":"uint256","internalType":"uint256"}],"stateMutability":"view"},{"type":"function","name":"VOTING_PERIOD","inputs":[],"outputs":[{"name":"","type":"uint256","internalType":"uint256"}],"stateMutability":"view"},{"type":"function","name":"cancelProposal","inputs":[{"name":"proposalId","type":"uint256","internalType":"uint256"}],"outputs":[],"stateMutability":"nonpayable"},{"type":"function","name":"castVote","inputs":[{"name":"proposalId","type":"uint256","internalType":"uint256"},{"name":"choice","type":"uint8","internalType":"enum DAOGovernance.VoteChoice"}],"outputs":[],"stateMutability":"nonpayable"},{"type":"function","name":"createProposal","inputs":[{"name":"proposalType","type":"uint8","internalType":"enum DAOGovernance.ProposalType"},{"name":"targetContract","type":"address","internalType":"address"},{"name":"callData","type":"bytes","internalType":"bytes"},{"name":"description","type":"string","internalType":"string"}],"outputs":[{"name":"proposalId","type":"uint256","internalType":"uint256"}],"stateMutability":"nonpayable"},{"type":"function","name":"daoTreasury","inputs":[],"outputs":[{"name":"","type":"address","internalType":"address"}],"stateMutability":"view"},{"type":"function","name":"defaultVotingDelegate","inputs":[],"outputs":[{"name":"","type":"address","internalType":"address"}],"stateMutability":"view"},{"type":"function","name":"executeProposal","inputs":[{"name":"proposalId","type":"uint256","internalType":"uint256"}],"outputs":[],"stateMutability":"nonpayable"},{"type":"function","name":"explicitVoters","inputs":[{"name":"","type":"uint256","internalType":"uint256"},{"name":"","type":"uint256","internalType":"uint256"}],"outputs":[{"name":"","type":"address","internalType":"address"}],"stateMutability":"view"},{"type":"function","name":"finalizeProposal","inputs":[{"name":"proposalId","type":"uint256","internalType":"uint256"}],"outputs":[],"stateMutability":"nonpayable"},{"type":"function","name":"getProposal","inputs":[{"name":"proposalId","type":"uint256","internalType":"uint256"}],"outputs":[{"name":"proposal","type":"tuple","internalType":"struct DAOGovernance.Proposal","components":[{"name":"proposalId","type":"uint256","internalType":"uint256"},{"name":"proposer","type":"address","internalType":"address"},{"name":"proposalType","type":"uint8","internalType":"enum DAOGovernance.ProposalType"},{"name":"targetContract","type":"address","internalType":"address"},{"name":"callData","type":"bytes","internalType":"bytes"},{"name":"description","type":"string","internalType":"string"},{"name":"createdAt","type":"uint256","internalType":"uint256"},{"name":"votingEnds","type":"uint256","internalType":"uint256"},{"name":"forVotes","type":"uint256","internalType":"uint256"},{"name":"againstVotes","type":"uint256","internalType":"uint256"},{"name":"abstainVotes","type":"uint256","internalType":"uint256"},{"name":"totalSupplySnapshot","type":"uint256","internalType":"uint256"},{"name":"state","type":"uint8","internalType":"enum DAOGovernance.ProposalState"},{"name":"executedAt","type":"uint256","internalType":"uint256"}]}],"stateMutability":"view"},{"type":"function","name":"getProposalState","inputs":[{"name":"proposalId","type":"uint256","internalType":"uint256"}],"outputs":[{"name":"state","type":"uint8","internalType":"enum DAOGovernance.ProposalState"}],"stateMutability":"view"},{"type":"function","name":"getVote","inputs":[{"name":"proposalId","type":"uint256","internalType":"uint256"},{"name":"voter","type":"address","internalType":"address"}],"outputs":[{"name":"voteRecord","type":"tuple","internalType":"struct DAOGovernance.VoteRecord","components":[{"name":"hasVoted","type":"bool","internalType":"bool"},{"name":"choice","type":"uint8","internalType":"enum DAOGovernance.VoteChoice"},{"name":"weight","type":"uint256","internalType":"uint256"}]}],"stateMutability":"view"},{"type":"function","name":"getVotingPower","inputs":[{"name":"account","type":"address","internalType":"address"}],"outputs":[{"name":"votingPower","type":"uint256","internalType":"uint256"}],"stateMutability":"view"},{"type":"function","name":"governanceToken","inputs":[],"outputs":[{"name":"","type":"address","internalType":"contract IERC20"}],"stateMutability":"view"},{"type":"function","name":"owner","inputs":[],"outputs":[{"name":"","type":"address","internalType":"address"}],"stateMutability":"view"},{"type":"function","name":"proposalCount","inputs":[],"outputs":[{"name":"","type":"uint256","internalType":"uint256"}],"stateMutability":"view"},{"type":"function","name":"proposals","inputs":[{"name":"","type":"uint256","internalType":"uint256"}],"outputs":[{"name":"proposalId","type":"uint256","internalType":"uint256"},{"name":"proposer","type":"address","internalType":"address"},{"name":"proposalType","type":"uint8","internalType":"enum DAOGovernance.ProposalType"},{"name":"targetContract","type":"address","internalType":"address"},{"name":"callData","type":"bytes","internalType":"bytes"},{"name":"description","type":"string","internalType":"string"},{"name":"createdAt","type":"uint256","internalType":"uint256"},{"name":"votingEnds","type":"uint256","internalType":"uint256"},{"name":"forVotes","type":"uint256","internalType":"uint256"},{"name":"againstVotes","type":"uint256","internalType":"uint256"},{"name":"abstainVotes","type":"uint256","internalType":"uint256"},{"name":"totalSupplySnapshot","type":"uint256","internalType":"uint256"},{"name":"state","type":"uint8","internalType":"enum DAOGovernance.ProposalState"},{"name":"executedAt","type":"uint256","internalType":"uint256"}],"stateMutability":"view"},{"type":"function","name":"renounceOwnership","inputs":[],"outputs":[],"stateMutability":"nonpayable"},{"type":"function","name":"setDAOTreasury","inputs":[{"name":"daoTreasury_","type":"address","internalType":"address"}],"outputs":[],"stateMutability":"nonpayable"},{"type":"function","name":"setDefaultVotingDelegate","inputs":[{"name":"delegate","type":"address","internalType":"address"}],"outputs":[],"stateMutability":"nonpayable"},{"type":"function","name":"transferOwnership","inputs":[{"name":"newOwner","type":"address","internalType":"address"}],"outputs":[],"stateMutability":"nonpayable"},{"type":"function","name":"votes","inputs":[{"name":"","type":"uint256","internalType":"uint256"},{"name":"","type":"address","internalType":"address"}],"outputs":[{"name":"hasVoted","type":"bool","internalType":"bool"},{"name":"choice","type":"uint8","internalType":"enum DAOGovernance.VoteChoice"},{"name":"weight","type":"uint256","internalType":"uint256"}],"stateMutability":"view"},{"type":"event","name":"DAOTreasurySet","inputs":[{"name":"daoTreasury","type":"address","indexed":true,"internalType":"address"}],"anonymous":false},{"type":"event","name":"DefaultVotingDelegateSet","inputs":[{"name":"delegate","type":"address","indexed":true,"internalType":"address"}],"anonymous":false},{"type":"event","name":"OwnershipTransferred","inputs":[{"name":"previousOwner","type":"address","indexed":true,"internalType":"address"},{"name":"newOwner","type":"address","indexed":true,"internalType":"address"}],"anonymous":false},{"type":"event","name":"ProposalCancelled","inputs":[{"name":"proposalId","type":"uint256","indexed":true,"internalType":"uint256"},{"name":"cancelledAt","type":"uint256","indexed":false,"internalType":"uint256"}],"anonymous":false},{"type":"event","name":"ProposalCreated","inputs":[{"name":"proposalId","type":"uint256","indexed":true,"internalType":"uint256"},{"name":"proposer","type":"address","indexed":true,"internalType":"address"},{"name":"proposalType","type":"uint8","indexed":false,"internalType":"enum DAOGovernance.ProposalType"},{"name":"targetContract","type":"address","indexed":false,"internalType":"address"},{"name":"description","type":"string","indexed":false,"internalType":"string"},{"name":"votingEnds","type":"uint256","indexed":false,"internalType":"uint256"}],"anonymous":false},{"type":"event","name":"ProposalExecuted","inputs":[{"name":"proposalId","type":"uint256","indexed":true,"internalType":"uint256"},{"name":"executedAt","type":"uint256","indexed":false,"internalType":"uint256"}],"anonymous":false},{"type":"event","name":"VoteCast","inputs":[{"name":"proposalId","type":"uint256","indexed":true,"internalType":"uint256"},{"name":"voter","type":"address","indexed":true,"internalType":"address"},{"name":"choice","type":"uint8","indexed":false,"internalType":"enum DAOGovernance.VoteChoice"},{"name":"weight","type":"uint256","indexed":false,"internalType":"uint256"}],"anonymous":false},{"type":"error","name":"AlreadySet","inputs":[]},{"type":"error","name":"AlreadyVoted","inputs":[]},{"type":"error","name":"ExecutionFailed","inputs":[]},{"type":"error","name":"InvalidProposalType","inputs":[]},{"type":"error","name":"NoVotingPower","inputs":[]},{"type":"error","name":"OwnableInvalidOwner","inputs":[{"name":"owner","type":"address","internalType":"address"}]},{"type":"error","name":"OwnableUnauthorizedAccount","inputs":[{"name":"account","type":"address","internalType":"address"}]},{"type":"error","name":"ProposalNotActive","inputs":[]},{"type":"error","name":"ProposalNotFound","inputs":[]},{"type":"error","name":"ProposalNotSucceeded","inputs":[]},{"type":"error","name":"QuorumNotReached","inputs":[]},{"type":"error","name":"ReentrancyGuardReentrantCall","inputs":[]},{"type":"error","name":"Unauthorized","inputs":[]},{"type":"error","name":"ZeroAddress","inputs":[]}],"bytecode":{"object":"0x60a0346200011b57601f62001f0638819003918201601f19168301916001600160401b038311848410176200011f5780849260409485528339810103126200011b5760206200004e8262000133565b916001600160a01b0391829162000066910162000133565b1691821562000103575f80546001600160a01b03198116851782556040519491908416907f8be0079c531659141344cd1fd0a4f28419497f9722a3daafe3b4186f6b6457e09080a36001805516908115620000f45750608052604051611dbd90816200014982396080518181816101370152818161072501528181610897015281816109010152610f110152f35b63d92e233d60e01b8152600490fd5b604051631e4fbdf760e01b81525f6004820152602490fd5b5f80fd5b634e487b7160e01b5f52604160045260245ffd5b51906001600160a01b03821682036200011b5756fe60806040526004361015610011575f80fd5b5f803560e01c8063013cf08b1461164a5780630c131a19146115f75780630d61b519146112fc578063174e3e05146112d35780632978dc3c1461124d5780633ab34290146112315780635652077c146110e15780635678138814610e6d578063715018a614610e1457806379022a9f14610deb57806382475fe21461080d5780638da5cb5b146107e65780639080936f146107b8578063b1610d7e1461079a578063bb4d4436146106e2578063bc3f931f14610635578063c7f758a8146103ef578063d23254b414610383578063d2d2d0ec14610307578063da35c664146102e9578063e0a8f6f514610212578063ee8a7c15146101f6578063f2fde38b146101695763f96dae0a14610122575f80fd5b346101665780600319360112610166576040517f00000000000000000000000000000000000000000000000000000000000000006001600160a01b03168152602090f35b80fd5b50346101665760203660031901126101665761018361195a565b61018b6119be565b6001600160a01b039081169081156101dd575f54826bffffffffffffffffffffffff60a01b8216175f55167f8be0079c531659141344cd1fd0a4f28419497f9722a3daafe3b4186f6b6457e05f80a380f35b604051631e4fbdf760e01b815260048101849052602490fd5b5034610166578060031936011261016657602060405160148152f35b5034610166576020366003190112610166576004358082526005602052604082206005810154156102d757600b81019081549060ff821660058110156102c3576102b157600101546001600160a01b031633036102a05760049060ff19161790557f5be67b1762c29673dceae3c1de04ecbf702ab0755c93f0fcc8aec5252df5a2b46020604051428152a280f35b6040516282b42960e81b8152600490fd5b604051637becc13f60e01b8152600490fd5b634e487b7160e01b86526021600452602486fd5b60405163635e873760e01b8152600490fd5b50346101665780600319360112610166576020600454604051908152f35b50346101665760203660031901126101665761032161195a565b6103296119be565b6001600160a01b0316801561037157600380546001600160a01b031916821790557ffc88ad20d99eb34bf1c8d8008f95197f8521666473c28d1b43d677daab493db38280a280f35b60405163d92e233d60e01b8152600490fd5b503461016657604036600319011261016657604061039f611970565b9160043581526006602052209060018060a01b03165f52602052606060405f20805490600160ff8360081c169101549060ff6040519316151583526103e3816119b4565b60208301526040820152f35b503461016657602036600319011261016657806040916101a0835161041381611886565b828152826020820152828582015282606082015260606080820152606060a08201528260c08201528260e0820152826101008201528261012082015282610140820152826101608201528261018082015201526004358152600560205220600c6040519161048083611886565b8054835260018101546001600160a01b03811660208501526104ab9060a01c60ff1660408501611a0a565b60028101546001600160a01b031660608401526040516104d9816104d281600386016117b1565b03826118a3565b60808401526040516104f2816104d281600486016117b1565b60a0840152600581015460c0840152600681015460e0840152600781015461010084015260088101546101208401526009810154610140840152600a81015461016084015261054c60ff600b830154166101808501611a68565b01546101a08201526040518091602082528051602083015260018060a01b036020820151166040830152610588604082015160608401906118c5565b60018060a01b0360608201511660808301526101a06105d16105bb60808401516101c060a08701526101e08601906118e6565b60a0840151858203601f190160c08701526118e6565b9160c081015160e085015260e081015161010085015261010081015161012085015261012081015161014085015261014081015161016085015261016081015161018085015261062961018082015183860190611924565b01516101c08301520390f35b5034610166576040366003190112610166576040610651611970565b918082805161065f8161186a565b828152826020820152015260043581526006602052209060018060a01b03165f52602052606060405f20604051906106968261186a565b600160ff82548181161515855260081c169160208401926106b6816119b4565b835201549060408301918252604051925115158352516106d5816119b4565b6020830152516040820152f35b503461016657602090816003193601126101665760248261070161195a565b6040516370a0823160e01b81526001600160a01b03918216600482015292839182907f0000000000000000000000000000000000000000000000000000000000000000165afa91821561078e579161075d575b50604051908152f35b90508181813d8311610787575b61077481836118a3565b8101031261078357515f610754565b5f80fd5b503d61076a565b604051903d90823e3d90fd5b5034610166578060031936011261016657602060405162093a808152f35b50346101665760203660031901126101665760206107d7600435611c12565b6107e46040518092611924565bf35b5034610166578060031936011261016657546040516001600160a01b039091168152602090f35b50346101665760803660031901126101665760048035101561016657610831611970565b60443567ffffffffffffffff8111610de757610851903690600401611986565b909160643567ffffffffffffffff8111610de357610873903690600401611986565b9261087c611ac7565b6040516370a0823160e01b81523360048201526020816024817f00000000000000000000000000000000000000000000000000000000000000006001600160a01b03165afa908115610dd8578791610da6575b5015610d9457600454945f198614610d80576001860160049081556040516318160ddd60e01b815291906020908390817f00000000000000000000000000000000000000000000000000000000000000006001600160a01b03165afa918215610d75578892610d41575b5062093a8042014211610d2d57610985906040519361095785611886565b88855233602086015261096f60043560408701611a0a565b6001600160a01b03871660608601523691611a32565b6080830152610995368685611a32565b60a08301524260c083015262093a80420160e083015286610100830152866101208301528661014083015261016082015285610180820152856101a0820152848652600560205260408620908051825560018060a01b0360208201511660018301549060408301516004811015610d19576001600160a81b03199092161760a09190911b60ff60a01b1617600183015560608101516002830180546001600160a01b0319166001600160a01b0392909216919091179055608081015180519067ffffffffffffffff8211610c8c578190610a7f82610a766003880154611779565b60038801611a74565b602090601f8311600114610cab578a92610ca0575b50508160011b915f199060031b1c19161760038301555b60a081015180519067ffffffffffffffff8211610c8c578190610ade82610ad56004880154611779565b60048801611a74565b602090601f8311600114610c1e578a92610c13575b50508160011b915f199060031b1c19161760048301555b60c0810151600583015560e08101516006830155610100810151600783015561012081015160088301556101408101516009830155610160810151600a830155600b82016101808201516005811015610bff5793879593600c6101a060209b958a957f6e7a01d61303e2bdcb14d72217ccf5d7f1ecafdbeaf4d3a27cda079b69cddfd59960ff80198354169116179055015191015560405193610baf856004356118c5565b6001600160a01b0316848a0152608060408501819052840182905260a084013760a0858301015262093a804201606082015260a0813395601f80199101168101030190a360018055604051908152f35b634e487b7160e01b89526021600452602489fd5b015190505f80610af3565b9250600485018a5260208a20908a935b601f1984168510610c71576001945083601f19811610610c59575b505050811b016004830155610b0a565b01515f1960f88460031b161c191690555f8080610c49565b81810151835560209485019460019093019290910190610c2e565b634e487b7160e01b89526041600452602489fd5b015190505f80610a94565b9250600385018a5260208a20908a935b601f1984168510610cfe576001945083601f19811610610ce6575b505050811b016003830155610aab565b01515f1960f88460031b161c191690555f8080610cd6565b81810151835560209485019460019093019290910190610cbb565b634e487b7160e01b8a52602160045260248afd5b634e487b7160e01b88526011600452602488fd5b9091506020813d602011610d6d575b81610d5d602093836118a3565b810103126107835751905f610939565b3d9150610d50565b6040513d8a823e3d90fd5b634e487b7160e01b87526011600452602487fd5b604051631f05dadd60e21b8152600490fd5b90506020813d602011610dd0575b81610dc1602093836118a3565b8101031261078357515f6108cf565b3d9150610db4565b6040513d89823e3d90fd5b8480fd5b8280fd5b50346101665780600319360112610166576002546040516001600160a01b039091168152602090f35b5034610166578060031936011261016657610e2d6119be565b5f80546001600160a01b0319811682556001600160a01b03167f8be0079c531659141344cd1fd0a4f28419497f9722a3daafe3b4186f6b6457e08280a380f35b5034610166576040366003190112610166576004356024356003811015610de757610e96611ac7565b8183526020916005835260408420926005840154156102d75760ff600b8501541660058110156102c3576102b157600684015442116102b1578185526006815260408520335f52815260ff60405f2054166110cf576040516370a0823160e01b81523360048201526001600160a01b039490919081836024817f00000000000000000000000000000000000000000000000000000000000000008a165afa928315610dd85787936110a0575b508215610d945760405195610f568761186a565b60019687815287848201610f69896119b4565b8881526040830190878252888c526006875260408c20335f52875260405f20935115159060ff61ff0086549251610f9f816119b4565b610fa8816119b4565b60081b1692169061ffff1916171783555191015584885260078352604088208054906801000000000000000082101561108c5790610fea918982018155611931565b819291549060031b9133831b921b1916179055611006856119b4565b84860361105b5760070161101b8382546119e9565b90555b6040519361102b816119b4565b84528301527fb83d25c6a5d258561330739951487acb4bd09ba5190b5d32c4f261817d90679260403393a3805580f35b611064856119b4565b8461107e576008016110778382546119e9565b905561101e565b6009016110778382546119e9565b634e487b7160e01b8a52604160045260248afd5b9092508181813d83116110c8575b6110b881836118a3565b810103126107835751915f610f42565b503d6110ae565b604051637c9a1cf960e01b8152600490fd5b5034610166576020366003190112610166576004358082526005602052604082206005810154156102d757600b81019160ff835416600581101561121d576102b15760068201544211156102b15761113890611aea565b600781015490600a61115c6111516008840154856119e9565b6009840154906119e9565b9101546014810290808204601414901517156112095760649004811015918491801580156111b8575b505050816111b0575b50156111a257805460ff1916600217905580f35b805460ff1916600117905580f35b90505f61118e565b909192506064830292808404606414901517156111f5576111e1576033910410155f8080611185565b634e487b7160e01b5f52601260045260245ffd5b634e487b7160e01b86526011600452602486fd5b634e487b7160e01b85526011600452602485fd5b634e487b7160e01b85526021600452602485fd5b5034610166578060031936011261016657602060405160338152f35b50346101665760203660031901126101665761126761195a565b61126f6119be565b600254906001600160a01b03908183166112c15716908115610371576001600160a01b03191681176002557f8e2753b72967374aaecbf8fd9d953892d6555e6d2c46fa36b5ba9d71cc9e41da8280a280f35b60405163a741a04560e01b8152600490fd5b50346101665780600319360112610166576003546040516001600160a01b039091168152602090f35b5034610166576020806003193601126114ed5760043561131a611ac7565b8083526005825260408320916005830154156102d757600b830180549060ff821660058110156115d1576002036115e557600360ff1980931617905542600c85015560019360ff8582015460a01c1660048110156115d1579085828893155f146114345750505083915052600581526104d26113a260036040872001604051928380926117b1565b81818051810103126107835781015160025485916001600160a01b0390911690813b15610de7578291602483926040519485938492634c4a8dab60e11b845260048401525af1801561142957611411575b50505f80516020611d68833981519152905b604051428152a2805580f35b61141a90611842565b61142557835f6113f3565b8380fd5b6040513d84823e3d90fd5b036114f157508391505260058152836104d261145c60036040842001604051928380926117b1565b82818051810103126114ed578201516001600160a01b038116908190036114ed57803b156114ed578190602460405180948193630b3af7f960e01b8352600260048401525af180156114e2576114c2575b505f80516020611d6883398151915290611405565b936114db5f80516020611d688339815191529295611842565b93906114ad565b6040513d87823e3d90fd5b5080fd5b600360018060a01b03600283015416910192604051908394805461151481611779565b92818b169182156115bd57505060011461158a575b50508281819503925af13d15611585573d61154381611a16565b9061155160405192836118a3565b815285833d92013e5b15611573575f80516020611d6883398151915290611405565b604051632b3f6d1160e21b8152600490fd5b61155a565b84528584209450835b86898383106115aa57505050810193508281611529565b875483860152909601958a955001611593565b168452505080151502810193508281611529565b634e487b7160e01b87526021600452602487fd5b60405163feace5cd60e01b8152600490fd5b5034610166576040366003190112610166576024359060043581526007602052604081209081548310156101665760206116318484611931565b905460405160039290921b1c6001600160a01b03168152f35b50346101665760203660031901126101665760043581526005602052604090208054600182015460028301546001600160a01b03939084169190608061169381600384016117b1565b036080906116a0916118a3565b60405192836116b281600485016117b1565b036116bd90856118a3565b60058201549360068301546007840154600885015491600986015493600a87015495600b88015460ff1697600c0154986040519c8d9c8d52811660208d015260408c019060a01c60ff1690611711916118c5565b60608b01526101c08060808c01528a0160809061172d916118e6565b8a810360a08c015261173e916118e6565b9760c08a015260e0890152610100880152610120870152610140860152610160850152610180840161176f91611924565b6101a08301520390f35b90600182811c921680156117a7575b602083101461179357565b634e487b7160e01b5f52602260045260245ffd5b91607f1691611788565b905f92918054916117c183611779565b9182825260019384811690815f1461181f57506001146117e2575b50505050565b90919394505f52602092835f2092845f945b83861061180b57505050500101905f8080806117dc565b8054858701830152940193859082016117f4565b9294505050602093945060ff191683830152151560051b0101905f8080806117dc565b67ffffffffffffffff811161185657604052565b634e487b7160e01b5f52604160045260245ffd5b6060810190811067ffffffffffffffff82111761185657604052565b6101c0810190811067ffffffffffffffff82111761185657604052565b90601f8019910116810190811067ffffffffffffffff82111761185657604052565b9060048210156118d25752565b634e487b7160e01b5f52602160045260245ffd5b91908251928382525f5b848110611910575050825f602080949584010152601f8019910116010190565b6020818301810151848301820152016118f0565b9060058210156118d25752565b8054821015611946575f5260205f2001905f90565b634e487b7160e01b5f52603260045260245ffd5b600435906001600160a01b038216820361078357565b602435906001600160a01b038216820361078357565b9181601f840112156107835782359167ffffffffffffffff8311610783576020838186019501011161078357565b600311156118d257565b5f546001600160a01b031633036119d157565b60405163118cdaa760e01b8152336004820152602490fd5b919082018092116119f657565b634e487b7160e01b5f52601160045260245ffd5b60048210156118d25752565b67ffffffffffffffff811161185657601f01601f191660200190565b929192611a3e82611a16565b91611a4c60405193846118a3565b829481845281830111610783578281602093845f960137010152565b60058210156118d25752565b90601f8111611a8257505050565b5f91825260208220906020601f850160051c83019410611abd575b601f0160051c01915b828110611ab257505050565b818155600101611aa6565b9092508290611a9d565b600260015414611ad8576002600155565b604051633ee5aeb560e01b8152600490fd5b6003546001600160a01b03168015611c0e575f918252600560205260408220906006602052604083209083526020526040822090604051611b2a8161186a565b600160ff84548181161515845260081c16936020830194611b4a816119b4565b8552015460408201525115611c09576007810191825490611b7160088401928354906119e9565b906009840195600a611b85885480956119e9565b950154948503948511611bf5575060018151611ba0816119b4565b611ba9816119b4565b03611bc25750505081611bbe929350546119e9565b9055565b9091935051611bd0816119b4565b611bd9816119b4565b611beb575081611bbe929350546119e9565b611bbe92506119e9565b634e487b7160e01b81526011600452602490fd5b505050565b5050565b5f90815260056020526040808220815191611c2c83611886565b8154835260018201546001600160a01b03808216602086015290611c589060a01c60ff16838601611a0a565b60028301541660608401528051611c76816104d281600387016117b1565b60808401528051611c8e816104d281600487016117b1565b60a0840152600582015460c0840190815260068301549360e08101948552600784015461010082015260088401546101208201526009840154610140820152600a8401546101608201526101a0600c60ff600b8701541695611cf561018085019788611a68565b01549101525115611d57575080516005811015611d4357611d1e5750514211611d1b5790565b90565b905051906005821015611d2f575090565b634e487b7160e01b81526021600452602490fd5b634e487b7160e01b84526021600452602484fd5b5163635e873760e01b8152600490fdfef758fc91e01b00ea6b4a6138756f7f28e021f9bf21db6dbf8c36c88eb737257aa2646970667358221220301b1650784a51604a03d43750d8ab4a0fe668fb74c1781157eb82897e4ac8bc64736f6c63430008140033","linkReferences":{}},"methodIdentifiers":{"APPROVAL_THRESHOLD()":"3ab34290","QUORUM_PERCENTAGE()":"ee8a7c15","VOTING_PERIOD()":"b1610d7e","cancelProposal(uint256)":"e0a8f6f5","castVote(uint256,uint8)":"56781388","createProposal(uint8,address,bytes,string)":"82475fe2","daoTreasury()":"79022a9f","defaultVotingDelegate()":"174e3e05","executeProposal(uint256)":"0d61b519","explicitVoters(uint256,uint256)":"0c131a19","finalizeProposal(uint256)":"5652077c","getProposal(uint256)":"c7f758a8","getProposalState(uint256)":"9080936f","getVote(uint256,address)":"bc3f931f","getVotingPower(address)":"bb4d4436","governanceToken()":"f96dae0a","owner()":"8da5cb5b","proposalCount()":"da35c664","proposals(uint256)":"013cf08b","renounceOwnership()":"715018a6","setDAOTreasury(address)":"2978dc3c","setDefaultVotingDelegate(address)":"d2d2d0ec","transferOwnership(address)":"f2fde38b","votes(uint256,address)":"d23254b4"},"id":35}