{"abi":[{"type":"constructor","inputs":[{"name":"usdc_","type":"address","internalType":"address"},{"name":"initialOwner_","type":"address","internalType":"address"}],"stateMutability":"nonpayable"},{"type":"function","name":"approveProposal","inputs":[{"name":"proposalId","type":"uint256","internalType":"uint256"}],"outputs":[],"stateMutability":"nonpayable"},{"type":"function","name":"availableBalance","inputs":[{"name":"","type":"address","internalType":"address"}],"outputs":[{"name":"","type":"uint256","internalType":"uint256"}],"stateMutability":"view"},{"type":"function","name":"cancelProposal","inputs":[{"name":"proposalId","type":"uint256","internalType":"uint256"}],"outputs":[],"stateMutability":"nonpayable"},{"type":"function","name":"daoGovernance","inputs":[],"outputs":[{"name":"","type":"address","internalType":"address"}],"stateMutability":"view"},{"type":"function","name":"depositFunds","inputs":[{"name":"datasetToken","type":"address","internalType":"address"},{"name":"projectAddress","type":"address","internalType":"address"},{"name":"amount","type":"uint256","internalType":"uint256"}],"outputs":[],"stateMutability":"nonpayable"},{"type":"function","name":"executeProposal","inputs":[{"name":"proposalId","type":"uint256","internalType":"uint256"}],"outputs":[],"stateMutability":"nonpayable"},{"type":"function","name":"getContractBalance","inputs":[],"outputs":[{"name":"","type":"uint256","internalType":"uint256"}],"stateMutability":"view"},{"type":"function","name":"getProposal","inputs":[{"name":"proposalId","type":"uint256","internalType":"uint256"}],"outputs":[{"name":"proposal","type":"tuple","internalType":"struct DAOTreasury.WithdrawalProposal","components":[{"name":"proposalId","type":"uint256","internalType":"uint256"},{"name":"projectAddress","type":"address","internalType":"address"},{"name":"datasetToken","type":"address","internalType":"address"},{"name":"amount","type":"uint256","internalType":"uint256"},{"name":"purpose","type":"string","internalType":"string"},{"name":"submittedAt","type":"uint256","internalType":"uint256"},{"name":"status","type":"uint8","internalType":"enum DAOTreasury.ProposalStatus"},{"name":"approvedAt","type":"uint256","internalType":"uint256"},{"name":"executedAt","type":"uint256","internalType":"uint256"}]}],"stateMutability":"view"},{"type":"function","name":"getTreasuryBalance","inputs":[{"name":"datasetToken","type":"address","internalType":"address"}],"outputs":[{"name":"available","type":"uint256","internalType":"uint256"},{"name":"withdrawn","type":"uint256","internalType":"uint256"},{"name":"deposited","type":"uint256","internalType":"uint256"}],"stateMutability":"view"},{"type":"function","name":"idoContract","inputs":[],"outputs":[{"name":"","type":"address","internalType":"address"}],"stateMutability":"view"},{"type":"function","name":"owner","inputs":[],"outputs":[{"name":"","type":"address","internalType":"address"}],"stateMutability":"view"},{"type":"function","name":"pause","inputs":[],"outputs":[],"stateMutability":"nonpayable"},{"type":"function","name":"paused","inputs":[],"outputs":[{"name":"","type":"bool","internalType":"bool"}],"stateMutability":"view"},{"type":"function","name":"projectAddresses","inputs":[{"name":"","type":"address","internalType":"address"}],"outputs":[{"name":"","type":"address","internalType":"address"}],"stateMutability":"view"},{"type":"function","name":"proposalCount","inputs":[],"outputs":[{"name":"","type":"uint256","internalType":"uint256"}],"stateMutability":"view"},{"type":"function","name":"proposals","inputs":[{"name":"","type":"uint256","internalType":"uint256"}],"outputs":[{"name":"proposalId","type":"uint256","internalType":"uint256"},{"name":"projectAddress","type":"address","internalType":"address"},{"name":"datasetToken","type":"address","internalType":"address"},{"name":"amount","type":"uint256","internalType":"uint256"},{"name":"purpose","type":"string","internalType":"string"},{"name":"submittedAt","type":"uint256","internalType":"uint256"},{"name":"status","type":"uint8","internalType":"enum DAOTreasury.ProposalStatus"},{"name":"approvedAt","type":"uint256","internalType":"uint256"},{"name":"executedAt","type":"uint256","internalType":"uint256"}],"stateMutability":"view"},{"type":"function","name":"rejectProposal","inputs":[{"name":"proposalId","type":"uint256","internalType":"uint256"}],"outputs":[],"stateMutability":"nonpayable"},{"type":"function","name":"renounceOwnership","inputs":[],"outputs":[],"stateMutability":"nonpayable"},{"type":"function","name":"setDAOGovernance","inputs":[{"name":"daoGovernance_","type":"address","internalType":"address"}],"outputs":[],"stateMutability":"nonpayable"},{"type":"function","name":"setIDOContract","inputs":[{"name":"idoContract_","type":"address","internalType":"address"}],"outputs":[],"stateMutability":"nonpayable"},{"type":"function","name":"submitProposal","inputs":[{"name":"datasetToken","type":"address","internalType":"address"},{"name":"amount","type":"uint256","internalType":"uint256"},{"name":"purpose","type":"string","internalType":"string"}],"outputs":[{"name":"proposalId","type":"uint256","internalType":"uint256"}],"stateMutability":"nonpayable"},{"type":"function","name":"totalDeposited","inputs":[{"name":"","type":"address","internalType":"address"}],"outputs":[{"name":"","type":"uint256","internalType":"uint256"}],"stateMutability":"view"},{"type":"function","name":"totalWithdrawn","inputs":[{"name":"","type":"address","internalType":"address"}],"outputs":[{"name":"","type":"uint256","internalType":"uint256"}],"stateMutability":"view"},{"type":"function","name":"transferOwnership","inputs":[{"name":"newOwner","type":"address","internalType":"address"}],"outputs":[],"stateMutability":"nonpayable"},{"type":"function","name":"unpause","inputs":[],"outputs":[],"stateMutability":"nonpayable"},{"type":"function","name":"usdc","inputs":[],"outputs":[{"name":"","type":"address","internalType":"contract IERC20"}],"stateMutability":"view"},{"type":"event","name":"DAOGovernanceSet","inputs":[{"name":"daoGovernance","type":"address","indexed":true,"internalType":"address"}],"anonymous":false},{"type":"event","name":"FundsDeposited","inputs":[{"name":"datasetToken","type":"address","indexed":true,"internalType":"address"},{"name":"amount","type":"uint256","indexed":false,"internalType":"uint256"},{"name":"totalDeposited","type":"uint256","indexed":false,"internalType":"uint256"}],"anonymous":false},{"type":"event","name":"IDOContractSet","inputs":[{"name":"idoContract","type":"address","indexed":true,"internalType":"address"}],"anonymous":false},{"type":"event","name":"OwnershipTransferred","inputs":[{"name":"previousOwner","type":"address","indexed":true,"internalType":"address"},{"name":"newOwner","type":"address","indexed":true,"internalType":"address"}],"anonymous":false},{"type":"event","name":"Paused","inputs":[{"name":"timestamp","type":"uint256","indexed":false,"internalType":"uint256"}],"anonymous":false},{"type":"event","name":"ProposalApproved","inputs":[{"name":"proposalId","type":"uint256","indexed":true,"internalType":"uint256"},{"name":"approvedAt","type":"uint256","indexed":false,"internalType":"uint256"}],"anonymous":false},{"type":"event","name":"ProposalCancelled","inputs":[{"name":"proposalId","type":"uint256","indexed":true,"internalType":"uint256"},{"name":"cancelledAt","type":"uint256","indexed":false,"internalType":"uint256"}],"anonymous":false},{"type":"event","name":"ProposalExecuted","inputs":[{"name":"proposalId","type":"uint256","indexed":true,"internalType":"uint256"},{"name":"executedAt","type":"uint256","indexed":false,"internalType":"uint256"},{"name":"amount","type":"uint256","indexed":false,"internalType":"uint256"}],"anonymous":false},{"type":"event","name":"ProposalRejected","inputs":[{"name":"proposalId","type":"uint256","indexed":true,"internalType":"uint256"},{"name":"rejectedAt","type":"uint256","indexed":false,"internalType":"uint256"}],"anonymous":false},{"type":"event","name":"ProposalSubmitted","inputs":[{"name":"proposalId","type":"uint256","indexed":true,"internalType":"uint256"},{"name":"projectAddress","type":"address","indexed":true,"internalType":"address"},{"name":"datasetToken","type":"address","indexed":true,"internalType":"address"},{"name":"amount","type":"uint256","indexed":false,"internalType":"uint256"},{"name":"purpose","type":"string","indexed":false,"internalType":"string"}],"anonymous":false},{"type":"event","name":"Unpaused","inputs":[{"name":"timestamp","type":"uint256","indexed":false,"internalType":"uint256"}],"anonymous":false},{"type":"error","name":"AddressEmptyCode","inputs":[{"name":"target","type":"address","internalType":"address"}]},{"type":"error","name":"AddressInsufficientBalance","inputs":[{"name":"account","type":"address","internalType":"address"}]},{"type":"error","name":"AlreadySet","inputs":[]},{"type":"error","name":"ContractPaused","inputs":[]},{"type":"error","name":"EmptyString","inputs":[]},{"type":"error","name":"FailedInnerCall","inputs":[]},{"type":"error","name":"InsufficientBalance","inputs":[]},{"type":"error","name":"InvalidProposalStatus","inputs":[]},{"type":"error","name":"OwnableInvalidOwner","inputs":[{"name":"owner","type":"address","internalType":"address"}]},{"type":"error","name":"OwnableUnauthorizedAccount","inputs":[{"name":"account","type":"address","internalType":"address"}]},{"type":"error","name":"ProposalNotFound","inputs":[]},{"type":"error","name":"ReentrancyGuardReentrantCall","inputs":[]},{"type":"error","name":"SafeERC20FailedOperation","inputs":[{"name":"token","type":"address","internalType":"address"}]},{"type":"error","name":"Unauthorized","inputs":[]},{"type":"error","name":"ZeroAddress","inputs":[]},{"type":"error","name":"ZeroAmount","inputs":[]}],"bytecode":{"object":"0x60a03461010957601f61161a38819003918201601f19168301916001600160401b0383118484101761010d57808492604094855283398101031261010957602061004882610121565b916001600160a01b0391829161005e9101610121565b169182156100f1575f80546001600160a01b03198116851782556040519491908416907f8be0079c531659141344cd1fd0a4f28419497f9722a3daafe3b4186f6b6457e09080a360018055169081156100e257506080526040516114e4908161013682396080518181816105e0015281816108f901528181610ec7015261108d0152f35b63d92e233d60e01b8152600490fd5b604051631e4fbdf760e01b81525f6004820152602490fd5b5f80fd5b634e487b7160e01b5f52604160045260245ffd5b51906001600160a01b03821682036101095756fe60806040526004361015610011575f80fd5b5f3560e01c8063013cf08b146110fa5780630a64143a146110c25780630d61b51914610f46578063116f71ac14610f1e5780633d4e5ddd14610ef65780633e413bee14610eb25780633f4ba83a14610e615780634cf7435814610a655780635305548114610a2d57806357baeac8146109d65780635c975abb146109b15780635cfaa873146109785780636f9fb98a146108ce578063715018a6146108775780638456cb591461081e5780638da5cb5b146107f757806398951b5614610767578063a0821be31461072f578063bc28d878146106a6578063c1461d5714610517578063c7f758a8146103bf578063da35c664146103a2578063e0a8f6f5146102cd578063e3ba60251461025b578063f2fde38b146101d15763ff2c682c14610137575f80fd5b346101cd5760203660031901126101cd5761015061130e565b610158611324565b600354906001600160a01b03908183166101bb57169081156101a9576001600160a01b03191681176003557fbc0a6b1ab2e3de350671c9f3c91c8a51202e82dd34770413ff41446a2489f6915f80a2005b60405163d92e233d60e01b8152600490fd5b60405163a741a04560e01b8152600490fd5b5f80fd5b346101cd5760203660031901126101cd576101ea61130e565b6101f2611324565b6001600160a01b03908116908115610243575f54826bffffffffffffffffffffffff60a01b8216175f55167f8be0079c531659141344cd1fd0a4f28419497f9722a3daafe3b4186f6b6457e05f80a3005b604051631e4fbdf760e01b81525f6004820152602490fd5b346101cd5760203660031901126101cd5761027461130e565b61027c611324565b600254906001600160a01b03908183166101bb57169081156101a9576001600160a01b03191681176002557fe0492f6f296617d08c7c9b95d100ebf76e2cf9d14cc82fae090e308c338c1f985f80a2005b346101cd5760203660031901126101cd57600435805f52600560205260405f2060058101541561039057600681019081549060ff8216600581101561037c5761036a57600101546001600160a01b031633036103595760049060ff19161790557f5be67b1762c29673dceae3c1de04ecbf702ab0755c93f0fcc8aec5252df5a2b46020604051428152a2005b6040516282b42960e81b8152600490fd5b604051637492a26960e01b8152600490fd5b634e487b7160e01b5f52602160045260245ffd5b60405163635e873760e01b8152600490fd5b346101cd575f3660031901126101cd576020600454604051908152f35b346101cd576020806003193601126101cd576040516103dd816111e3565b5f81525f828201525f60408201525f6060820152606060808201525f60a08201525f60c08201525f60e08201525f610100809201526004355f526005825260405f20906040519161042d836111e3565b8054835260018060a01b039182600183015416908585019182528360028401541692604086019384526003810154946060870195865261046f60048301611222565b6080880190815260058301549660a0890197885260ff6006850154169260c08a0197600585101561037c578160088c97610509978c5260e060078201549901988952015498888d01998a526040518e819f9e829f835251910152511660408c0152511660608a015251608089015251946104f7610120968760a08b01526101408a01906112c3565b965160c08901525160e0880190611301565b519085015251908301520390f35b346101cd5760603660031901126101cd5761053061130e565b6024356001600160a01b03818116918290036101cd576044359261055261148b565b81600354163303610359578315610694578116928315801561068c575b6101a957604051916020906323b872dd60e01b828501523360248501523060448501528260648501526064845260a084019484861067ffffffffffffffff871117610678576106046040957fbee4fe3675934fca827426c793623996a3079255089bda3a717019ffc5db27659787527f000000000000000000000000000000000000000000000000000000000000000061135c565b865f5260068352845f2061061985825461134f565b9055865f5260088352845f2061063085825461134f565b9055865f5260098352845f2091825490811615610663575b50505060088152825f2054908351928352820152a260018055005b6001600160a01b031916179055858080610648565b634e487b7160e01b5f52604160045260245ffd5b50821561056f565b604051631f2a200560e01b8152600490fd5b346101cd5760203660031901126101cd57600254600435906001600160a01b0316330361035957805f52600560205260405f2060058101541561039057600601805460ff8116600581101561037c5761036a5760029060ff19161790557ffa74c17c82b1d1960368a621d45c9afe55e65c87a2c9fe612ac7e36c382b3f786020604051428152a2005b346101cd5760203660031901126101cd576001600160a01b0361075061130e565b165f526006602052602060405f2054604051908152f35b346101cd5760203660031901126101cd57600254600435906001600160a01b0316330361035957805f52600560205260405f206005810154156103905760068101805460ff8116600581101561037c5761036a5760019060ff19161790556007429101557fc6a4fd4a703d2a2fe3167ce7f6d62bf96458b7e55042cfaa85d5c7ef3ac56eea6020604051428152a2005b346101cd575f3660031901126101cd575f546040516001600160a01b039091168152602090f35b346101cd575f3660031901126101cd57610836611324565b6003805460ff60a01b1916600160a01b1790556040514281527f32fb7c9891bc4f963c7de9f1186d2a7755c7d6e9f4604dabe1d8bb3027c2f49e90602090a1005b346101cd575f3660031901126101cd5761088f611324565b5f80546001600160a01b0319811682556001600160a01b03167f8be0079c531659141344cd1fd0a4f28419497f9722a3daafe3b4186f6b6457e08280a3005b346101cd575f3660031901126101cd576040516370a0823160e01b81523060048201526020816024817f00000000000000000000000000000000000000000000000000000000000000006001600160a01b03165afa801561096d575f9061093b575b602090604051908152f35b506020813d8211610965575b8161095460209383611200565b810103126101cd5760209051610930565b3d9150610947565b6040513d5f823e3d90fd5b346101cd5760203660031901126101cd5760206001600160a01b038061099c61130e565b165f526009825260405f205416604051908152f35b346101cd575f3660031901126101cd57602060ff60035460a01c166040519015158152f35b346101cd5760203660031901126101cd576001600160a01b036109f761130e565b165f526006602052606060405f2054600760205260405f2054600860205260405f20549060405192835260208301526040820152f35b346101cd5760203660031901126101cd576001600160a01b03610a4e61130e565b165f526008602052602060405f2054604051908152f35b346101cd5760603660031901126101cd57610a7e61130e565b67ffffffffffffffff604435116101cd573660236044350112156101cd5767ffffffffffffffff60443560040135116101cd57366024604435600401356044350101116101cd57610acd61148b565b60ff60035460a01c16610e4f576001600160a01b038181165f908152600960205260409020541633036103595760243515610694576001600160a01b0381165f9081526006602052604090205460243511610e3d576044356004013515610e2b576004545f198114610e17576001810160045560405191610b4d836111e3565b8183523360208401526001600160a01b03811660408401526024356060840152610b7c6004604435013561140c565b610b896040519182611200565b60443560048101358083529060240160208301375f6020604435600401358301015260808401524260a08401525f60c08401525f60e08401525f610100840152815f52600560205260405f20835181556001810160018060a01b03602086015116906bffffffffffffffffffffffff60a01b9182825416179055600282019060018060a01b036040870151169082541617905560608401516003820155608084015180519067ffffffffffffffff8211610678578190610c4c60048501546111ab565b601f8111610dc7575b50602090601f8311600114610d59575f92610d4e575b50508160011b915f199060031b1c19161760048201555b60a084015160058201556006810160c0850151600581101561037c576020956008926101009260ff8019835416911617905560e0810151600785015501519101556040519060243582526040848301526044356004013560408301526044356004013560246044350160608401375f6060604435600401358401015260018060a01b031690827fe3f003e87812768a3dd5f0d5e70ecbfacabc9d5cc0f8176e9eb426fdfd94d33d3392606081601f19601f6044356004013501168101030190a460018055604051908152f35b015190508680610c6b565b9250600484015f5260205f20905f935b601f1984168510610dac576001945083601f19811610610d94575b505050811b016004820155610c82565b01515f1960f88460031b161c19169055868080610d84565b81810151835560209485019460019093019290910190610d69565b909150600484015f5260205f20601f840160051c810160208510610e10575b90849392915b601f830160051c82018110610e02575050610c55565b5f8155859450600101610dec565b5080610de6565b634e487b7160e01b5f52601160045260245ffd5b60405163ecd7b0d160e01b8152600490fd5b604051631e9acf1760e31b8152600490fd5b60405163ab35696f60e01b8152600490fd5b346101cd575f3660031901126101cd57610e79611324565b60ff60a01b19600354166003557f9dd715fed52c25e642f97653bb4c4339ad98fe6d6e130348be82ae5d86383a8c6020604051428152a1005b346101cd575f3660031901126101cd576040517f00000000000000000000000000000000000000000000000000000000000000006001600160a01b03168152602090f35b346101cd575f3660031901126101cd576002546040516001600160a01b039091168152602090f35b346101cd575f3660031901126101cd576003546040516001600160a01b039091168152602090f35b346101cd576020806003193601126101cd5760043590610f6461148b565b60ff60035460a01c16610e4f57815f526005815260405f209060058201541561039057600682019182549260ff8416600581101561037c5760010361036a576001820180546001600160a01b0393919291908416330361035957600381019586549160028101938685541692835f526006895260405f20548511610e3d5760039060ff19161790556008429101555f526006855260405f208054918203918211610e1757558285549154165f526007845261102460405f2091825461134f565b905554169082546040519263a9059cbb60e01b838501526024840152604483015260448252608082019282841067ffffffffffffffff851117610678576110b16040937f3842d9e8746c3c1b0c5e717a88df9c9ae97f2f8c0e01e42dce160aafdb3840e99585527f000000000000000000000000000000000000000000000000000000000000000061135c565b54825191428352820152a260018055005b346101cd5760203660031901126101cd576001600160a01b036110e361130e565b165f526007602052602060405f2054604051908152f35b346101cd5760203660031901126101cd576004355f52600560205260405f20805460018060a01b0391826001820154169260028201541660038201549161119c61114660048301611222565b9361118c60058401549560ff6006860154169260086007870154960154966040519a8b9a8b5260208b015260408a015260608901526101208060808a01528801906112c3565b9460a087015260c0860190611301565b60e08401526101008301520390f35b90600182811c921680156111d9575b60208310146111c557565b634e487b7160e01b5f52602260045260245ffd5b91607f16916111ba565b610120810190811067ffffffffffffffff82111761067857604052565b90601f8019910116810190811067ffffffffffffffff82111761067857604052565b9060405191825f825492611235846111ab565b9081845260019485811690815f146112a05750600114611260575b505061125e92500383611200565b565b909391505f52602090815f20935f915b81831061128857505061125e93508201015f80611250565b85548884018501529485019487945091830191611270565b91505061125e94506020925060ff191682840152151560051b8201015f80611250565b91908251928382525f5b8481106112ed575050825f602080949584010152601f8019910116010190565b6020818301810151848301820152016112cd565b90600582101561037c5752565b600435906001600160a01b03821682036101cd57565b5f546001600160a01b0316330361133757565b60405163118cdaa760e01b8152336004820152602490fd5b91908201809211610e1757565b60018060a01b0316906113a55f80836020829551910182875af13d15611404573d906113878261140c565b916113956040519384611200565b82523d84602084013e5b84611428565b9081519182151592836113d5575b5050506113bd5750565b60249060405190635274afe760e01b82526004820152fd5b8192935090602091810103126114005760200151908115918215036113fd57505f80806113b3565b80fd5b5080fd5b60609061139f565b67ffffffffffffffff811161067857601f01601f191660200190565b9061144f575080511561143d57805190602001fd5b604051630a12f52160e11b8152600490fd5b81511580611482575b611460575090565b604051639996b31560e01b81526001600160a01b039091166004820152602490fd5b50803b15611458565b60026001541461149c576002600155565b604051633ee5aeb560e01b8152600490fdfea2646970667358221220c3d52c043817344031dda9735a765858b5fc26780af5e807a58c8b0d805cc61f64736f6c63430008140033","linkReferences":{}},"methodIdentifiers":{"approveProposal(uint256)":"98951b56","availableBalance(address)":"a0821be3","cancelProposal(uint256)":"e0a8f6f5","daoGovernance()":"3d4e5ddd","depositFunds(address,address,uint256)":"c1461d57","executeProposal(uint256)":"0d61b519","getContractBalance()":"6f9fb98a","getProposal(uint256)":"c7f758a8","getTreasuryBalance(address)":"57baeac8","idoContract()":"116f71ac","owner()":"8da5cb5b","pause()":"8456cb59","paused()":"5c975abb","projectAddresses(address)":"5cfaa873","proposalCount()":"da35c664","proposals(uint256)":"013cf08b","rejectProposal(uint256)":"bc28d878","renounceOwnership()":"715018a6","setDAOGovernance(address)":"e3ba6025","setIDOContract(address)":"ff2c682c","submitProposal(address,uint256,string)":"4cf74358","totalDeposited(address)":"53055481","totalWithdrawn(address)":"0a64143a","transferOwnership(address)":"f2fde38b","unpause()":"3f4ba83a","usdc()":"3e413bee"},"id":36}