{"abi":[{"type":"constructor","inputs":[{"name":"usdc_","type":"address","internalType":"address"},{"name":"initialOwner","type":"address","internalType":"address"}],"stateMutability":"nonpayable"},{"type":"function","name":"configure","inputs":[{"name":"rentalManager_","type":"address","internalType":"address"},{"name":"daoTreasury_","type":"address","internalType":"address"},{"name":"protocolTreasury_","type":"address","internalType":"address"}],"outputs":[],"stateMutability":"nonpayable"},{"type":"function","name":"daoTreasury","inputs":[],"outputs":[{"name":"","type":"address","internalType":"address"}],"stateMutability":"view"},{"type":"function","name":"datasetCount","inputs":[],"outputs":[{"name":"","type":"uint256","internalType":"uint256"}],"stateMutability":"view"},{"type":"function","name":"deployDataset","inputs":[{"name":"projectAddress","type":"address","internalType":"address"},{"name":"name","type":"string","internalType":"string"},{"name":"symbol","type":"string","internalType":"string"},{"name":"metadataURI","type":"string","internalType":"string"},{"name":"rentalPricePerHour","type":"uint256","internalType":"uint256"},{"name":"config","type":"tuple","internalType":"struct Factory.IDOConfig","components":[{"name":"alphaProject","type":"uint256","internalType":"uint256"},{"name":"k","type":"uint256","internalType":"uint256"},{"name":"betaLP","type":"uint256","internalType":"uint256"},{"name":"minRaiseRatio","type":"uint256","internalType":"uint256"},{"name":"initialPrice","type":"uint256","internalType":"uint256"}]}],"outputs":[{"name":"datasetId","type":"uint256","internalType":"uint256"}],"stateMutability":"nonpayable"},{"type":"function","name":"idoImplementation","inputs":[],"outputs":[{"name":"","type":"address","internalType":"address"}],"stateMutability":"view"},{"type":"function","name":"managerImplementation","inputs":[],"outputs":[{"name":"","type":"address","internalType":"address"}],"stateMutability":"view"},{"type":"function","name":"owner","inputs":[],"outputs":[{"name":"","type":"address","internalType":"address"}],"stateMutability":"view"},{"type":"function","name":"poolImplementation","inputs":[],"outputs":[{"name":"","type":"address","internalType":"address"}],"stateMutability":"view"},{"type":"function","name":"protocolTreasury","inputs":[],"outputs":[{"name":"","type":"address","internalType":"address"}],"stateMutability":"view"},{"type":"function","name":"renounceOwnership","inputs":[],"outputs":[],"stateMutability":"nonpayable"},{"type":"function","name":"rentalManager","inputs":[],"outputs":[{"name":"","type":"address","internalType":"address"}],"stateMutability":"view"},{"type":"function","name":"setImplementations","inputs":[{"name":"token_","type":"address","internalType":"address"},{"name":"manager_","type":"address","internalType":"address"},{"name":"pool_","type":"address","internalType":"address"},{"name":"ido_","type":"address","internalType":"address"}],"outputs":[],"stateMutability":"nonpayable"},{"type":"function","name":"tokenImplementation","inputs":[],"outputs":[{"name":"","type":"address","internalType":"address"}],"stateMutability":"view"},{"type":"function","name":"transferOwnership","inputs":[{"name":"newOwner","type":"address","internalType":"address"}],"outputs":[],"stateMutability":"nonpayable"},{"type":"function","name":"usdc","inputs":[],"outputs":[{"name":"","type":"address","internalType":"address"}],"stateMutability":"view"},{"type":"event","name":"DatasetDeployed","inputs":[{"name":"datasetId","type":"uint256","indexed":true,"internalType":"uint256"},{"name":"projectAddress","type":"address","indexed":true,"internalType":"address"},{"name":"ido","type":"address","indexed":false,"internalType":"address"},{"name":"token","type":"address","indexed":false,"internalType":"address"},{"name":"manager","type":"address","indexed":false,"internalType":"address"},{"name":"pool","type":"address","indexed":false,"internalType":"address"}],"anonymous":false},{"type":"event","name":"ImplementationsSet","inputs":[{"name":"token","type":"address","indexed":false,"internalType":"address"},{"name":"manager","type":"address","indexed":false,"internalType":"address"},{"name":"pool","type":"address","indexed":false,"internalType":"address"},{"name":"ido","type":"address","indexed":false,"internalType":"address"}],"anonymous":false},{"type":"event","name":"OwnershipTransferred","inputs":[{"name":"previousOwner","type":"address","indexed":true,"internalType":"address"},{"name":"newOwner","type":"address","indexed":true,"internalType":"address"}],"anonymous":false},{"type":"error","name":"ERC1167FailedCreateClone","inputs":[]},{"type":"error","name":"EmptyString","inputs":[]},{"type":"error","name":"InvalidConfig","inputs":[]},{"type":"error","name":"OwnableInvalidOwner","inputs":[{"name":"owner","type":"address","internalType":"address"}]},{"type":"error","name":"OwnableUnauthorizedAccount","inputs":[{"name":"account","type":"address","internalType":"address"}]},{"type":"error","name":"ZeroAddress","inputs":[]}],"bytecode":{"object":"0x60a0346200028657620066ae906001600160401b03601f38849003908101601f1916830190828211848310176200028a5780849160409687948552833981010312620002865781620000536020936200029e565b6001600160a01b0393909184916200006c91016200029e565b169182156200026f575f80546001600160a01b03198082168617835587519095929492909187167f8be0079c531659141344cd1fd0a4f28419497f9722a3daafe3b4186f6b6457e08680a38582161562000245575060805284516118ec80820190828210848311176200023157908291620029048339039083f080156200022757841683600154161760015584516117b180820190828210848311176200023157908291620011538339039083f08015620002275784168360025416176002558451610e0480820190828210848311176200023157908291620058aa8339039083f08015620002275784168360035416176003558451906116ba80830191838310908311176200021357908291620041f08339039082f090811562000208575091608091817f3e3aac68f5d3430f5b97b6a6959dd13910b31907891cc9f6cd886dc0f92fcad1941680916004541617600455816001541691806002541690600354169086519384526020840152858301526060820152a151610e9f9081620002b482396080518181816103760152818161044e0152610be50152f35b8451903d90823e3d90fd5b634e487b7160e01b84526041600452602484fd5b85513d84823e3d90fd5b634e487b7160e01b85526041600452602485fd5b62461bcd60e51b81526020600482015260056024820152641830b2323960d91b6044820152606490fd5b8451631e4fbdf760e01b81525f6004820152602490fd5b5f80fd5b634e487b7160e01b5f52604160045260245ffd5b51906001600160a01b0382168203620002865756fe6080806040526004361015610012575f80fd5b5f90813560e01c908163032261fd14610c5b575080632f3a3d5d14610c325780633c8935b914610c145780633e413bee14610bcf57806355d28f2014610b2d57806360b2fa76146109ed578063715018a61461099357806379022a9f1461096a578063803db96d146109415780638da5cb5b1461091a5780639f4a5337146108f1578063c278cff6146108c8578063cefa77991461089f578063f2fde38b146108195763f3619121146100c3575f80fd5b3461064657610140366003190112610646576100dd610c80565b9067ffffffffffffffff602435818111610703576100ff903690600401610d10565b60443582811161081557610117903690600401610d10565b9360643583811161072557610130903690600401610d10565b9460a03660a3190112610725576040519360a085019081118582101761080157604090815260a435855260c435602086015260e435908501526101043560608501526101243560808501526001600160a01b038216156107d45782511515806107ca575b61019d90610d91565b6101a986511515610d91565b835180151590816107be575b50806107b1575b806107a2575b80610795575b80610788575b80610778575b8061076b575b1561073d57600854945f19861461072957600186810160085554610206906001600160a01b0316610e03565b60025490959061021e906001600160a01b0316610e03565b600354909890610236906001600160a01b0316610e03565b60045490949061024e906001600160a01b0316610e03565b966001600160a01b0389163b156107255761028a859161029c60405194859384936364d5d05560e11b855260a0600486015260a4850190610dc5565b83810360031901602485015290610dc5565b3060448301526001600160a01b038b8116606484015269d3c21bcecceda1000000608484015291900390829084908d165af1801561071a57610707575b506001600160a01b0389163b156107035760405163197a393d60e21b81526001600160a01b038881166004830152861660248201523060448201526080606482015290839082908190610330906084830190610dc5565b0381836001600160a01b038e165af1801561066c579083916106ef575b50506001600160a01b0383163b156106545760405163c0c53b8b60e01b81526001600160a01b037f0000000000000000000000000000000000000000000000000000000000000000811660048301528781166024830152306044830152839082906064908290849089165af1801561066c579083916106db575b5050805160208201516040830151606084015160809094015160075460065460055495966001600160a01b03968716969182169592821694909290918c163b156106d757604051636022a6b760e11b8152600481019890985260248801526044870152606486015260848501526001600160a01b0387811660a486015289811660c48601527f0000000000000000000000000000000000000000000000000000000000000000811660e48601526101048501919091526101248401919091526101448301919091528290829061016490829084908a165af18015610649579082916106c3575b505060405163a9059cbb60e01b81526001600160a01b03858116600483015269d3c21bcecceda100000060248301526020908290604490829086908b165af180156106495761068b575b506001600160a01b0385163b156106465760405163f2fde38b60e01b8082526001600160a01b03858116600484015290919083908290602490829084908c165af1801561066c57908391610677575b50506001600160a01b0388163b15610654576040518181526001600160a01b03858116600483015283908290602490829084908e165af1801561066c57908391610658575b50506001600160a01b0383163b15610654576040519081526001600160a01b038481166004830152829082906024908290849088165af1801561064957610632575b5050604080516001600160a01b0394851681529484166020808701919091529684169085015282166060840152169060018301907f8de5e92dbde7d5b2b86b5a17aff1b357fcf34652ab72ff4f95b56480dbc7542390608090a3600160405191018152f35b61063c8291610cc6565b61064657806105cd565b80fd5b6040513d84823e3d90fd5b5080fd5b61066190610cc6565b61065457815f61058b565b6040513d85823e3d90fd5b61068090610cc6565b61065457815f610546565b6020813d6020116106bb575b816106a460209383610cee565b81010312610654575180151503610646575f6104f7565b3d9150610697565b6106cc90610cc6565b61064657805f6104ad565b8880fd5b6106e490610cc6565b61065457815f6103c7565b6106f890610cc6565b61065457815f61034d565b8280fd5b61071390939193610cc6565b915f6102d9565b6040513d86823e3d90fd5b8480fd5b634e487b7160e01b81526011600452602490fd5b60405162461bcd60e51b8152602060048201526006602482015265636f6e66696760d01b6044820152606490fd5b50608084015115156101da565b50612710606085015111156101d4565b50606084015115156101ce565b50602084015115156101c8565b506127106040850151106101c2565b50604084015115156101bc565b6127109150105f6101b5565b5080511515610194565b60405162461bcd60e51b81526020600482015260056024820152641830b2323960d91b6044820152606490fd5b634e487b7160e01b86526041600452602486fd5b8380fd5b503461064657602036600319011261064657610833610c80565b61083b610d66565b6001600160a01b039081169081156108865782546001600160a01b0319811683178455167f8be0079c531659141344cd1fd0a4f28419497f9722a3daafe3b4186f6b6457e08380a380f35b604051631e4fbdf760e01b815260048101849052602490fd5b50346106465780600319360112610646576003546040516001600160a01b039091168152602090f35b50346106465780600319360112610646576005546040516001600160a01b039091168152602090f35b50346106465780600319360112610646576002546040516001600160a01b039091168152602090f35b5034610646578060031936011261064657546040516001600160a01b039091168152602090f35b50346106465780600319360112610646576007546040516001600160a01b039091168152602090f35b50346106465780600319360112610646576006546040516001600160a01b039091168152602090f35b50346106465780600319360112610646576109ac610d66565b80546001600160a01b03198116825581906001600160a01b03167f8be0079c531659141344cd1fd0a4f28419497f9722a3daafe3b4186f6b6457e08280a380f35b503461064657608036600319011261064657610a07610c80565b610a0f610c9a565b610a17610cb0565b6001600160a01b03916064358381169290839003610b2957838092817f3e3aac68f5d3430f5b97b6a6959dd13910b31907891cc9f6cd886dc0f92fcad197610a5d610d66565b1680610b10575b501680610af7575b501680610ade575b5080610ac5575b50600154600254600354600454604080516001600160a01b03958716861681529386168516602085015291851684169183019190915290921616606082015280608081010390a180f35b6001600160601b0360a01b60045416176004555f610a7b565b6001600160601b0360a01b60035416176003555f610a74565b6001600160601b0360a01b60025416176002555f610a6c565b6001600160601b0360a01b60015416176001555f610a64565b8580fd5b503461064657606036600319011261064657610b47610c80565b610b4f610c9a565b90610b58610cb0565b90610b61610d66565b6001600160a01b03928391821680610bb6575b501680610b9d575b501680610b87575080f35b6001600160601b0360a01b600754161760075580f35b6001600160601b0360a01b60065416176006555f610b7c565b6001600160601b0360a01b60055416176005555f610b74565b50346106465780600319360112610646576040517f00000000000000000000000000000000000000000000000000000000000000006001600160a01b03168152602090f35b50346106465780600319360112610646576020600854604051908152f35b50346106465780600319360112610646576001546040516001600160a01b039091168152602090f35b9050346106545781600319360112610654576004546001600160a01b03168152602090f35b600435906001600160a01b0382168203610c9657565b5f80fd5b602435906001600160a01b0382168203610c9657565b604435906001600160a01b0382168203610c9657565b67ffffffffffffffff8111610cda57604052565b634e487b7160e01b5f52604160045260245ffd5b90601f8019910116810190811067ffffffffffffffff821117610cda57604052565b81601f82011215610c965780359067ffffffffffffffff8211610cda5760405192610d45601f8401601f191660200185610cee565b82845260208383010111610c9657815f926020809301838601378301015290565b5f546001600160a01b03163303610d7957565b60405163118cdaa760e01b8152336004820152602490fd5b15610d9857565b60405162461bcd60e51b8152602060048201526005602482015264656d70747960d81b6044820152606490fd5b91908251928382525f5b848110610def575050825f602080949584010152601f8019910116010190565b602081830181015184830182015201610dcf565b6e5af43d82803e903d91602b57fd5bf390763d602d80600a3d3981f3363d3d373d3d3d363d7300000062ffffff8260881c16175f5260781b17602052603760095ff0906001600160a01b03821615610e5757565b6040516330be1a3d60e21b8152600490fdfea2646970667358221220d78faa1646788390ba6dda96f237f17fa37e9efc877f2049e46ccc9d0a811abb64736f6c6343000814003360808060405234610078573315610063575f8054336001600160a01b03198216811783556040519290916001600160a01b0316907f8be0079c531659141344cd1fd0a4f28419497f9722a3daafe3b4186f6b6457e09080a3611734908161007d8239f35b631e4fbdf760e01b81525f6004820152602490fd5b5f80fdfe60806040818152600480361015610014575f80fd5b5f92833560e01c9081630b3af7f914611133575080630dcc8510146110085780630f2eab6214610fe2578063178f999314610fc3578063200d2ed214610e92578063301b253e14610fa5578063372d6b2714610f5b5780633cf96af114610f325780633d4e5ddd14610f0957806341f6df2214610eda57806343084c6214610ebb5780634e69d56014610e9257806351bb53e314610e5a57806353d1b9e014610e1c578063577b540b14610da55780635ea25bfb14610d135780635ee07f5114610c3f57806365e8e4f41461091957806368de6e7c14610885578063715018a61461082b578063775df3ff1461080c5780638da5cb5b146107e4578063918b5be1146104f9578063936da879146104c157806398ceee2d14610459578063ae7616e01461043a578063b5713ff714610411578063c278cff6146103e8578063cf09e0d0146103c9578063e0f59c0a14610339578063e347356414610236578063e8634f7e14610215578063f2fde38b146101c05763f7d4efe114610196575f80fd5b346101bc57826003193601126101bc575490516001600160a01b03909116815260209150f35b8280fd5b50346101bc5760203660031901126101bc576101da611207565b916101e3611495565b6001600160a01b038316156101ff57836101fc846114c0565b80f35b51631e4fbdf760e01b8152908101839052602490fd5b50503461023257816003193601126102325760209051611c208152f35b5080fd5b508290346102325781600319360112610232576007549067ffffffffffffffff82116103265750825191602092610272848460051b0182611290565b8281526007825283810192827fa66cc928b5edb82af9bd49922954155ab7b0942694bea4ce44661d9a8736c688855b83831061030257505050508451938085019181865251809252858501958260051b8601019392955b8287106102d65785850386f35b9091929382806102f2600193603f198a8203018652885161140e565b96019201960195929190926102c9565b6001888192610314859b98999b61136f565b815201920192019190969493966102a1565b634e487b7160e01b835260419052602482fd5b5090346101bc5760203660031901126101bc57610354611207565b6001600160a01b0381168452600a60205281842054611c209390929084841061039b5750610384608095926115e5565b928151948552602085015283015215156060820152f35b94838503908582116103b657506080955061038490926115e5565b634e487b7160e01b815260118752602490fd5b5050346102325781600319360112610232576020906010549051908152f35b50503461023257816003193601126102325760035490516001600160a01b039091168152602090f35b50503461023257816003193601126102325760015490516001600160a01b039091168152602090f35b505034610232578160031936011261023257602090600f549051908152f35b5091346104be5760203660031901126104be578235600754811015610232576104819061144c565b9390936104ac576104a8836104958661136f565b905191829160208352602083019061140e565b0390f35b634e487b7160e01b8252819052602490fd5b80fd5b5050346102325760203660031901126102325760209181906001600160a01b036104e9611207565b168152600a845220549051908152f35b5091903461023257602090816003193601126101bc57833567ffffffffffffffff8082116107e057366023830112156107e057818601359081116107e057602495368783850101116107dc576002546001600160a01b031633036107ce5781156107c0576105656112c6565b9361057a83610575600654611258565b611506565b86601f8411848a8360018414610746578492610739575b50508560011b905f198760031b1c1916176006555b600754600160401b811015610727576105c660019182810160075561144c565b939093610716575085906105e4826105de8654611258565b86611563565b8b8b936001146106a5578b9383610698575b50501b905f198660031b1c19161790555b6007545f198101929083116106865750917fa200c8265320772f2ed161e5ad747a5a600841b205b474b4dc3457ce9161955795939183828a61065698965198899760808952608089019061140e565b958787038989015282875201878601378383018601899052840152426060840152601f01601f191601030190a180f35b634e487b7160e01b8852601190528787fd5b8901013592508b5f6105f6565b50918a91601f1981168584528d8c8681872096925b8d8585106106f5575050505050106106da575b505084811b019055610607565b87018b01355f19600388901b60f8161c191690555f806106cd565b8395965096809892939497010135815501940192019088918c8f87906106ba565b634e487b7160e01b81528086528b90fd5b634e487b7160e01b8352604185528a83fd5b8801013590508a5f610591565b600685525f805160206116df8339815191529250905086601f198116858c8f5b8383106107a15750505010610786575b5050600185811b016006556105a6565b87018b01355f19600388901b60f8161c191690555f80610776565b858d01013586558e9750600190950194938401938a9350018c8f610766565b835163ecd7b0d160e01b8152fd5b83516306f5458360e31b8152fd5b8580fd5b8480fd5b505034610232578160031936011261023257905490516001600160a01b039091168152602090f35b5050346102325781600319360112610232576020906009549051908152f35b83346104be57806003193601126104be57610844611495565b80546001600160a01b03198116825581906001600160a01b03167f8be0079c531659141344cd1fd0a4f28419497f9722a3daafe3b4186f6b6457e08280a380f35b50346101bc5760203660031901126101bc5761089f611207565b906108a8611495565b600554916001600160a01b039081841661090957169283156108fc5750506001600160a01b03191681176005557f28468801674fc897ff67a05abaaadab5065f4484507ce4bdd5eea382809ae8248280a280f35b5163d92e233d60e01b8152fd5b845163a741a04560e01b81528390fd5b5090346101bc5760803660031901126101bc57610934611207565b9061093d611221565b6001600160a01b03929091906044358481168103610c3b576064359467ffffffffffffffff94858711610c375736602388011215610c37578688013591868311610c24578551936020958b601f199a61099d898d601f8a01160189611290565b868852602496368882840101116101bc5780888b9301838b0137880101528b5460ff8160a01c16610c155760ff60a01b1916600160a01b178c5582169687158015610c0b575b610bfc57855115610bed57506109f8906114c0565b6bffffffffffffffffffffffff60a01b9160019683885416178755169060025416176002558151858111610b6a57610a3581610575600654611258565b8084601f8211600114610b87578a91610b7c575b505f19600383901b1c191690851b176006555b60ff19600854166008554260095542601055600754600160401b811015610b6a578085610a8c920160075561144c565b979097610b5a578251958611610b49575050610ab284610aac8854611258565b88611563565b81601f8511600114610aeb5750839450908392918794610ae0575b50501b915f199060031b1c191617905580f35b015192505f80610acd565b9294849081168789528489209489905b88838310610b2f5750505010610b17575b505050811b01905580f35b01515f1960f88460031b161c191690555f8080610b0c565b858701518855909601959485019487935090810190610afb565b634e487b7160e01b89526041905287fd5b634e487b7160e01b895288905287fd5b50634e487b7160e01b88526041875287fd5b90508301515f610a49565b888793169060068c525f805160206116df833981519152918c5b88828210610bd75750508311610bbf575b5050811b01600655610a5c565b8501515f1960f88460031b161c191690555f80610bb2565b8389015185558a96909401939283019201610ba1565b5163ecd7b0d160e01b81528a90fd5b5163d92e233d60e01b81528a90fd5b50828416156109e3565b885162dc149f60e41b81528c90fd5b634e487b7160e01b8a526041895260248afd5b8880fd5b8680fd5b50919034610232578060031936011261023257823590610c5d611221565b6003546001600160a01b03919082163303610d03578315610cf357907e2a3fa8e00c7b1132f6b6c8c6d01e97a742bc0534caedb2c344e90ccb3534f592911692838552600e602052818520805460ff811615610cd4575b5050610cc281600c546115d8565b80600c5582519182526020820152a280f35b60ff19166001179055600d54610ce9906115b6565b600d558580610cb4565b825163162908e360e11b81528690fd5b82516317e7e6cf60e11b81528690fd5b50346101bc5760203660031901126101bc57610d2d611207565b610d35611495565b8154906001600160a01b0390818316610d955716928315610d8657506001600160a01b031916821790557f72db81bdf9ce653f005c7f3bc91f741f06e9e1aaeccff1d822368ab69c4928ed8280a280f35b5163d92e233d60e01b81529050fd5b845163a741a04560e01b81528490fd5b50346101bc5760203660031901126101bc57610dbf611207565b90610dc8611495565b600354916001600160a01b039081841661090957169283156108fc5750506001600160a01b03191681176003557fc40598dc521e404f9949df020315fcf77b27b956eb271ae90b41331967a0c6128280a280f35b5050346102325760203660031901126102325760209160ff9082906001600160a01b03610e47611207565b168152600e855220541690519015158152f35b5050346102325760203660031901126102325760209181906001600160a01b03610e82611207565b168152600b845220549051908152f35b505034610232578160031936011261023257602090610eb960ff6008541691518092611237565bf35b505034610232578160031936011261023257602090600c549051908152f35b50503461023257602036600319011261023257602090610f00610efb611207565b6115e5565b90519015158152f35b50503461023257816003193601126102325760055490516001600160a01b039091168152602090f35b50503461023257816003193601126102325760025490516001600160a01b039091168152602090f35b50503461023257816003193601126102325760a090610eb9600c5491600d5490600f546010549160ff60085416938151968752602087015285015260608401526080830190611237565b5050346102325781600319360112610232576104a8906104956112c6565b505034610232578160031936011261023257602090600d549051908152f35b50503461023257602036600319011261023257602090610f00611003611207565b611663565b5090346101bc57806003193601126101bc57611022611207565b825460243593916001600160a01b039182163303611123578415611113571692838552600b6020528285208054156110fc575b50838552600a60205261106b81848720546115d8565b90611c20928383116110ee57507f08ab1b5bf4bf9f7f17323c1bd25781c20505715136c1145bca220ce5ac2bd8ab848692838952600a60205284828a20558151908152846020820152a210156110bf578280f35b60207fa37e35da89db3b9898817e9d072b546ca88e4ce17d0f3250f317aee755450dab9151428152a25f808280f35b8451633f122b6560e01b8152fd5b42905561110a600f546115b6565b600f555f611055565b835163162908e360e11b81528390fd5b835163287a9b4f60e11b81528390fd5b9050346112035760203660031901126112035781359160038310156107e05760085491600184146111e5575b50600283146111c5575b507f3cf33849493428e54679e49f24d94a91595cb2ac39b09b4a6ec45d7624021ae5926111bc836111b260ff948560609716861982161760085542600955845195869116611237565b6020840190611237565b4290820152a180f35b6005546001600160a01b031633146111695783516314df2f1d60e31b8152fd5b6002546001600160a01b0316331461115f576306f5458360e31b8152fd5b8380fd5b600435906001600160a01b038216820361121d57565b5f80fd5b602435906001600160a01b038216820361121d57565b9060038210156112445752565b634e487b7160e01b5f52602160045260245ffd5b90600182811c92168015611286575b602083101461127257565b634e487b7160e01b5f52602260045260245ffd5b91607f1691611267565b90601f8019910116810190811067ffffffffffffffff8211176112b257604052565b634e487b7160e01b5f52604160045260245ffd5b604051905f82600654916112d983611258565b8083529260019081811690811561134d5750600114611302575b5061130092500383611290565b565b60065f90815291505f805160206116df8339815191525b848310611332575061130093505081016020015f6112f3565b81935090816020925483858a01015201910190918592611319565b90506020925061130094915060ff191682840152151560051b8201015f6112f3565b9060405191825f82549261138284611258565b9081845260019485811690815f146113eb57506001146113ab575b505061130092500383611290565b909391505f52602090815f20935f915b8183106113d357505061130093508201015f8061139d565b855488840185015294850194879450918301916113bb565b91505061130094506020925060ff191682840152151560051b8201015f8061139d565b91908251928382525f5b848110611438575050825f602080949584010152601f8019910116010190565b602081830181015184830182015201611418565b6007548110156114815760075f527fa66cc928b5edb82af9bd49922954155ab7b0942694bea4ce44661d9a8736c68801905f90565b634e487b7160e01b5f52603260045260245ffd5b5f546001600160a01b031633036114a857565b60405163118cdaa760e01b8152336004820152602490fd5b5f80546001600160a01b039283166001600160a01b03198216811783559216907f8be0079c531659141344cd1fd0a4f28419497f9722a3daafe3b4186f6b6457e09080a3565b601f8111611512575050565b5f90600682525f805160206116df833981519152906020601f850160051c83019410611559575b601f0160051c01915b82811061154e57505050565b818155600101611542565b9092508290611539565b90601f811161157157505050565b5f91825260208220906020601f850160051c830194106115ac575b601f0160051c01915b8281106115a157505050565b818155600101611595565b909250829061158c565b5f1981146115c45760010190565b634e487b7160e01b5f52601160045260245ffd5b919082018092116115c457565b6001546040516370a0823160e01b81526001600160a01b0392831660048201529160209183916024918391165afa908115611658575f91611627575b50151590565b906020823d8211611650575b8161164060209383611290565b810103126104be5750515f611621565b3d9150611633565b6040513d5f823e3d90fd5b6001546040516370a0823160e01b81526001600160a01b0392831660048201529160209183916024918391165afa908115611658575f916116ad575b506116a8575f90565b600190565b906020823d82116116d6575b816116c660209383611290565b810103126104be5750515f61169f565b3d91506116b956fef652222313e28459528d920b65115c16c04f3efc82aaedc97be59f3f377c0d3fa264697066735822122063a6831d189d9396b5a81317a497f03efc5abcc038654445bb5b8b8424cbd34564736f6c634300081400336080346200036f576040906001600160401b0390808301828111828210176200027a578352601b81526020917f44617461736574546f6b656e20496d706c656d656e746174696f6e0000000000838301528351848101818110838211176200027a578552600781526611150b5253541360ca1b8482015282518281116200027a576003918254916001958684811c9416801562000364575b8885101462000350578190601f94858111620002fd575b5088908583116001146200029a575f926200028e575b50505f1982861b1c191690861b1783555b80519384116200027a5760049586548681811c911680156200026f575b828210146200025c5783811162000214575b5080928511600114620001aa57509383949184925f956200019e575b50501b925f19911b1c19161781555b331562000189575060058054336001600160a01b0319821681179092559151916001600160a01b03167f8be0079c531659141344cd1fd0a4f28419497f9722a3daafe3b4186f6b6457e05f80a36115789081620003748239f35b5f6024925191631e4fbdf760e01b8352820152fd5b015193505f8062000120565b92919084601f198116885f52855f20955f905b89838310620001f95750505010620001df575b50505050811b0181556200012f565b01519060f8845f19921b161c191690555f808080620001d0565b858701518955909701969485019488935090810190620001bd565b875f52815f208480880160051c82019284891062000252575b0160051c019087905b8281106200024657505062000104565b5f815501879062000236565b925081926200022d565b602288634e487b7160e01b5f525260245ffd5b90607f1690620000f2565b634e487b7160e01b5f52604160045260245ffd5b015190505f80620000c4565b90889350601f19831691875f528a5f20925f5b8c828210620002e65750508411620002ce575b505050811b018355620000d5565b01515f1983881b60f8161c191690555f8080620002c0565b8385015186558c97909501949384019301620002ad565b909150855f52885f208580850160051c8201928b861062000346575b918a91869594930160051c01915b82811062000337575050620000ae565b5f81558594508a910162000327565b9250819262000319565b634e487b7160e01b5f52602260045260245ffd5b93607f169362000097565b5f80fdfe60806040526004361015610011575f80fd5b5f3560e01c806304be926014610fbb57806306fdde0314610e83578063095ea7b314610e0157806318160ddd14610de4578063218bb93d14610d7257806323b872dd14610c8b5780632dc44f5d14610c19578063313ce56714610bfe57806333eeb14714610bd9578063574fd37114610bb1578063578a628b14610b7057806361d2542314610b485780636a28f00014610abd57806370a0823114610a86578063715018a614610a2b5780638da5cb5b14610a0357806395d89b4114610866578063a1617eab14610829578063a9059cbb146107f8578063c9aba0aa14610277578063dd62ed3e1461022a578063df5c30f114610202578063e9bef076146101785763f2fde38b14610121575f80fd5b346101745760203660031901126101745761013a610fff565b6101426110fe565b6001600160a01b0381161561015c5761015a9061112a565b005b604051631e4fbdf760e01b81525f6004820152602490fd5b5f80fd5b3461017457602036600319011261017457610191610fff565b6101996110fe565b600a54906001600160a01b03908183166101f057169081156101de576001600160a01b0319168117600a555f908152600b60205260409020805460ff19166001179055005b60405163d92e233d60e01b8152600490fd5b60405163a741a04560e01b8152600490fd5b34610174575f366003190112610174576008546040516001600160a01b039091168152602090f35b3461017457604036600319011261017457610243610fff565b61024b611015565b9060018060a01b038091165f52600160205260405f2091165f52602052602060405f2054604051908152f35b346101745760a03660031901126101745760043567ffffffffffffffff8111610174576102a89036906004016110a8565b60243567ffffffffffffffff8111610174576102c89036906004016110a8565b6044356001600160a01b0381169003610174576064356001600160a01b03811681036101745760055460ff8160a01c166107e75760ff60a01b1916600160a01b17600555825167ffffffffffffffff81116106f6576103286006546114ca565b601f8111610783575b506020601f821160011461071557819293945f9261070a575b50508160011b915f199060031b1c1916176006555b815167ffffffffffffffff81116106f65761037b6007546114ca565b601f811161068e575b50602092601f821160011461062257928192935f92610617575b50508160011b915f199060031b1c1916176007555b6103be60443561112a565b6001600160a01b0360443581165f908152600b602052604090208054600160ff199182161790915591908116156101de57600a80546001600160a01b0319166001600160a01b039290921691821790555f908152600b602052604090208054909116600117905560843580610443575b600a805460ff60a01b1916600160a01b179055005b30156105ff5760ff600a5460a01c16610595575b6008546001600160a01b03168061053f575b5060025481810180911161052b57600255305f525f60205260405f208181540190556040519081525f7fddf252ad1be2c89b69c2b068fc378daa952ba7f163c4a11628f55a4df523b3ef60203093a36008546001600160a01b0316801561042e57305f525f60205260405f205490803b156101745760405163404b99a760e01b815230600482015260248101929092525f908290604490829084905af18015610520571561042e5761051a90611072565b8061042e565b6040513d5f823e3d90fd5b634e487b7160e01b5f52601160045260245ffd5b305f525f60205260405f205490803b1561017457604051632e7e340b60e21b815230600482015260248101929092525f908290604490829084905af1801561052057156104695761058f90611072565b81610469565b5f8052600b6020527fdf7de25b7f1fd6d0b5205f0e18f1f35bd7b8d84cce336588d184533ce43a6f765460ff1615806105ed575b806105e6575b156104575760405163514f220f60e01b8152600490fd5b505f6105cf565b50305f5260ff60405f205416156105c9565b60405163ec442f0560e01b81525f6004820152602490fd5b01519050838061039e565b601f1982169360075f525f80516020611503833981519152915f5b868110610676575083600195961061065e575b505050811b016007556103b3565b01515f1960f88460031b161c19169055838080610650565b9192602060018192868501518155019401920161063d565b60075f52601f820160051c5f805160206115038339815191520190602083106106e1575b601f0160051c5f8051602061150383398151915201905b8181106106d65750610384565b5f81556001016106c9565b5f8051602061150383398151915291506106b2565b634e487b7160e01b5f52604160045260245ffd5b01519050848061034a565b601f1982169060065f525f80516020611523833981519152915f5b81811061076b57509583600195969710610753575b505050811b0160065561035f565b01515f1960f88460031b161c19169055848080610745565b9192602060018192868b015181550194019201610730565b60065f52601f820160051c5f8051602061152383398151915201602083106107d3575b601f820160051c5f805160206115238339815191520181106107c85750610331565b5f81556001016107a6565b505f805160206115238339815191526107a6565b60405162dc149f60e41b8152600490fd5b346101745760403660031901126101745761081e610814610fff565b6024359033611172565b602060405160018152f35b34610174576020366003190112610174576001600160a01b0361084a610fff565b165f52600b602052602060ff60405f2054166040519015158152f35b34610174575f36600319011261017457600754610882816114ca565b1561094057604051905f90610896816114ca565b8084529060019081811690811561091957506001146108d2575b5050906108c2816108ce930382611086565b6040519182918261102b565b0390f35b60075f90815292505f805160206115038339815191525b8284106109015750505081016020016108c2826108b0565b805460208587018101919091529093019281016108e9565b60ff191660208087019190915292151560051b850190920192506108c291508390506108b0565b506040515f600454610951816114ca565b808452906001908181169081156109dc5750600114610982575b50509061097d816108ce930382611086565b6108c2565b60045f90815292507f8a35acfbc15ff81a39ae7d344fd709f28e8600b4aa8c65c6b64bfe7fe36bd19b5b8284106109c457505050810160200161097d8261096b565b805460208587018101919091529093019281016109ac565b60ff191660208087019190915292151560051b8501909201925061097d915083905061096b565b34610174575f366003190112610174576005546040516001600160a01b039091168152602090f35b34610174575f36600319011261017457610a436110fe565b600580546001600160a01b031981169091555f906001600160a01b03167f8be0079c531659141344cd1fd0a4f28419497f9722a3daafe3b4186f6b6457e08280a3005b34610174576020366003190112610174576001600160a01b03610aa7610fff565b165f525f602052602060405f2054604051908152f35b34610174575f36600319011261017457600a546001600160a01b0381163303610b365760ff8160a01c1615610b245760ff60a01b1916600a556040514281527f083eea12772ab70fba01c8212d02f3bc5dc29b8540dcdc84298e5dfa22731b9290602090a1005b6040516301e48e1d60e41b8152600490fd5b604051632a2e804f60e01b8152600490fd5b34610174575f366003190112610174576009546040516001600160a01b039091168152602090f35b3461017457602036600319011261017457610b89610fff565b610b916110fe565b6001600160a01b03165f908152600b60205260409020805460ff19169055005b34610174575f36600319011261017457600a546040516001600160a01b039091168152602090f35b34610174575f36600319011261017457602060ff600a5460a01c166040519015158152f35b34610174575f36600319011261017457602060405160128152f35b3461017457602036600319011261017457610c32610fff565b610c3a6110fe565b600954906001600160a01b03908183166101f057169081156101de576001600160a01b03191681176009557fdcc3384993519dbffc7b7f128a2e517d09bd867a9839e2b82a14ac36a8bd32875f80a2005b3461017457606036600319011261017457610ca4610fff565b610cac611015565b6044359060018060a01b03831692835f52600160205260405f20335f5260205260405f2054935f198503610ce6575b5061081e9350611172565b838510610d4c578015610d34573315610d1c5761081e9484915f52600160205260405f20335f526020520360405f205584610cdb565b604051634a1406b160e11b81525f6004820152602490fd5b60405163e602df0560e01b81525f6004820152602490fd5b604051637dc7a0d960e11b81523360048201526024810186905260448101859052606490fd5b3461017457602036600319011261017457610d8b610fff565b610d936110fe565b600854906001600160a01b03908183166101f057169081156101de576001600160a01b03191681176008557f95f4f94aa238ab636f38602b066083a1c1a255d3235a54d2368a954e12785cb75f80a2005b34610174575f366003190112610174576020600254604051908152f35b3461017457604036600319011261017457610e1a610fff565b602435903315610d34576001600160a01b0316908115610d1c57335f52600160205260405f20825f526020528060405f20556040519081527f8c5be1e5ebec7d5bd14f71427d1e84f3dd0314c0f7b2291e5b200ac8c7c3b92560203392a3602060405160018152f35b34610174575f36600319011261017457600654610e9f816114ca565b15610f2557604051905f90610eb3816114ca565b808452906001908181169081156109195750600114610ede575050906108c2816108ce930382611086565b60065f90815292505f805160206115238339815191525b828410610f0d5750505081016020016108c2826108b0565b80546020858701810191909152909301928101610ef5565b506040515f600354610f36816114ca565b808452906001908181169081156109dc5750600114610f615750509061097d816108ce930382611086565b60035f90815292507fc2575a0e9e593c00f959f8c92f12db2869c3395a3b0502d05e2516446f71f85b5b828410610fa357505050810160200161097d8261096b565b80546020858701810191909152909301928101610f8b565b3461017457602036600319011261017457610fd4610fff565b610fdc6110fe565b6001600160a01b03165f908152600b60205260409020805460ff19166001179055005b600435906001600160a01b038216820361017457565b602435906001600160a01b038216820361017457565b602080825282518183018190529093925f5b82811061105e57505060409293505f838284010152601f8019910116010190565b81810186015184820160400152850161103d565b67ffffffffffffffff81116106f657604052565b90601f8019910116810190811067ffffffffffffffff8211176106f657604052565b81601f820112156101745780359067ffffffffffffffff82116106f657604051926110dd601f8401601f191660200185611086565b8284526020838301011161017457815f926020809301838601378301015290565b6005546001600160a01b0316330361111257565b60405163118cdaa760e01b8152336004820152602490fd5b600580546001600160a01b039283166001600160a01b0319821681179092559091167f8be0079c531659141344cd1fd0a4f28419497f9722a3daafe3b4186f6b6457e05f80a3565b6001600160a01b038082169392919084156114b2578083169182156105ff57600a549560ff5f9760a01c16611464575b826008541680611368575b5080875260209187835260409687892054818110611339577fddf252ad1be2c89b69c2b068fc378daa952ba7f163c4a11628f55a4df523b3ef85838c8c8b96899687845283865203912055848d528c82528b8d208181540190558b51908152a3836008541680611223575b505050505050505050565b8583036112c1575b5050830361123c575b808080611218565b859160085416928252528284205491813b156112bd57835163404b99a760e01b81526001600160a01b03919091166004820152602481019290925290919083908390604490829084905af19081156112b4575061129d575b80808080611234565b6112a78291611072565b6112b15780611294565b80fd5b513d84823e3d90fd5b8480fd5b8289528884528789205491813b1561133557885163404b99a760e01b81526001600160a01b03919091166004820152602481019290925288908290604490829084905af1801561132b579088911561122b5761131c90611072565b61132757865f61122b565b8680fd5b87513d8a823e3d90fd5b8980fd5b885163391434e360e21b81526001600160a01b0384166004820152602481019190915260448101829052606490fd5b848203611401575b5080840361137f575b5f6111ad565b8260085416848852876020526040882054813b156113fd57604051632e7e340b60e21b81526001600160a01b038816600482015260248101919091529088908290604490829084905af180156113f2579088916113de575b5050611379565b6113e790611072565b61132757865f6113d7565b6040513d8a823e3d90fd5b8880fd5b818852876020526040882054813b156113fd57604051632e7e340b60e21b81526001600160a01b038516600482015260248101919091529088908290604490829084905af180156113f257156113705761145d90979197611072565b955f611370565b808752600b60205260ff60408820541615806114a0575b80611498575b156111a25760405163514f220f60e01b8152600490fd5b506001611481565b5083875260ff6040882054161561147b565b604051634b637e8f60e11b81525f6004820152602490fd5b90600182811c921680156114f8575b60208310146114e457565b634e487b7160e01b5f52602260045260245ffd5b91607f16916114d956fea66cc928b5edb82af9bd49922954155ab7b0942694bea4ce44661d9a8736c688f652222313e28459528d920b65115c16c04f3efc82aaedc97be59f3f377c0d3fa2646970667358221220667d4fe4b019ed0e5b38500e1e11664387d7e74523b2496dc7c8e314ebae1a0764736f6c634300081400336080806040523461001a5760015f5561169b908161001f8239f35b5f80fdfe6080604081815260049081361015610015575f80fd5b5f92833560e01c90816311eac8551461121f5750806317888efc146112005780631d0806ae146111e1578063200d2ed2146111a1578063263d4878146110b55780633197cbb6146110965780633cf96af11461106d578063468c51441461104e5780634af18f4f14610ff25780635ed9ebfc14610fd35780636386c1c714610e4657806368a94dfc14610e085780636d79207c14610dea57806373688e5614610dcb57806378e9792514610dac57806379022a9f14610d83578063790ca41314610d645780637975ce28146109fb578063803db96d146109d2578063831cb8e8146109b3578063902d55a51461098d578063939c4456146108e0578063973e8c09146108c45780639d76ea581461089b578063a725f9b11461087c578063a8c6acda14610859578063b4f40c611461083a578063b5545a3c146106be578063b66c6f051461069f578063c0454d6e14610458578063c278cff61461042f578063cfebb19a14610410578063d73792a9146103f3578063da3f89db146103d5578063e85074d6146103b9578063eb91d37e1461038e5763ed9772b6146101b8575f80fd5b3461038a576101c63661125a565b92906101d06114dd565b60ff6014541660038110156103775761036857601154421161035957801561034a5760125480821161033a578061020a8361020f936112b5565b61159a565b9160328302838104603214841517156103275761271090049061023282856112b5565b95861061031957836013541061030b5750917f0db49c84bba47806cd98c426100d458b5859594553fc51f0ce13852e9e1ca1c9602096926001946102c588878060a01b0361028885826008541630903390611360565b610294876013546112b5565b6013556102a3856012546112b5565b6012556102ba8482600a541683600954169061131d565b3390600a541661131d565b6103016102d360125461153f565b88519384526020840195909552604083019190915260608201939093524260808201523392819060a0820190565b0390a25551908152f35b845163fe7e4c3560e01b8152fd5b8451638199f5f360e01b8152fd5b634e487b7160e01b875260118252602487fd5b8351631e9acf1760e31b81528390fd5b509051632ca2f52b60e11b8152fd5b509051630407b05b60e31b8152fd5b509051634065aaf160e11b8152fd5b634e487b7160e01b865260218352602486fd5b8280fd5b8382346103b557816003193601126103b5576020906103ae60125461153f565b9051908152f35b5080fd5b8382346103b557816003193601126103b5576020905160328152f35b50903461038a578260031936011261038a5760209250549051908152f35b8382346103b557816003193601126103b557602090516127108152f35b8382346103b557816003193601126103b557602090600f549051908152f35b8382346103b557816003193601126103b557600c5490516001600160a01b039091168152602090f35b50903461038a5761016036600319011261038a57602435918135906001600160a01b0360a4358181169060443590606435906084359084900361069b5760c43585811680910361069b5760e4359186831680930361069b57610104359387851680950361069b57610124359588871680970361069b576101443598891680990361069b576001549c60ff8e1661068c57600160ff199e8f161760015588158015610684575b801561067c575b8015610674575b801561066c575b8015610664575b610654576127109a8b8d1080159061064a575b61062a5761138884108015610641575b61062a5781158015610639575b61062a57508b6002556003558b556005556006556bffffffffffffffffffffffff60a01b9485600754161760075584600854161760085583600a541617600a5582600954161760095581600b541617600b55600c541617600c556a084595161401484a000000918083029083820403610617570480600e5581039081116106045780600d55600f5542601055621275004201908142116105f157506011556014541660145580f35b634e487b7160e01b845260119052602483fd5b634e487b7160e01b845260118252602484fd5b634e487b7160e01b865260118452602486fd5b51630e52390960e41b81528d90fd5b508415610549565b508b841161053c565b508b83101561052c565b8a5163d92e233d60e01b81528d90fd5b508915610519565b508715610512565b50861561050b565b508515610504565b5084156104fd565b8a5162dc149f60e41b81528d90fd5b5f80fd5b8382346103b557816003193601126103b5576020906005549051908152f35b503461038a578260031936011261038a576106d76114dd565b60ff6014541660038110156108275760020361081a573383526020926017845260ff828220541661080c5760085482516370a0823160e01b815233818601526001600160a01b0394909186908390602490829089165afa9182156108025783926107d3575b5081156107c5575090600191610789670de0b6b3a764000061076060165484611270565b048096338552601789528685208660ff198254161790556102ba84826008541630903390611360565b8351908152848682015242848201527f2a62c9fef01ce4cfe24b93ff7cef58e2c929cc918e5d27a85cb76dd6bbbd6d1560603392a25551908152f35b8351631e9acf1760e31b8152fd5b9091508581813d83116107fb575b6107eb81836112cf565b8101031261069b5751905f61073c565b503d6107e1565b84513d85823e3d90fd5b5051630c8d9eab60e31b8152fd5b51637d7c293760e01b8152fd5b634e487b7160e01b845260218352602484fd5b8382346103b557816003193601126103b5576020906003549051908152f35b50823461087957602036600319011261087957506103ae602092356114fe565b80fd5b8382346103b557816003193601126103b557602090600d549051908152f35b8382346103b557816003193601126103b55760085490516001600160a01b039091168152602090f35b8382346103b557816003193601126103b55760209051601e8152f35b508290346103b557816003193601126103b557601254600f549290919083156109805761271080840290848204148415171561096d57846109579495965061092791611297565b905b60115442811161095b5750915b51948594859094939260609260808301968352602083015260408201520152565b0390f35b610967915042906112b5565b91610936565b634e487b7160e01b825260118652602482fd5b6109579293945080610929565b8382346103b557816003193601126103b557602090516a084595161401484a0000008152f35b8382346103b557816003193601126103b5576020906016549051908152f35b8382346103b557816003193601126103b55760095490516001600160a01b039091168152602090f35b508290346103b557610a0c3661125a565b929093610a176114dd565b60ff601454166003811015610d5157610d43576011544211610d35578415610d2757601254610a4686826112c2565b600d5410610d185780610a5c87610a62936112c2565b9061159a565b90601e820291808304601e14811517156106045761271080930490610a8782826112c2565b968711610d0857600a546001600160a01b039890610aac908990309033908d16611360565b610ac0838a600a54168b600954169061131d565b610acc826013546112c2565b601355610adb816012546112c2565b601255600854875163a9059cbb60e01b8152338682019081526020808201859052919283918290036040019082908b908f165af18015610cfe57907f6aca558a17acdb28cf36bd17a224740ed6c6a73de4aff1f9aca8c03ec27d2ea89291610cd0575b5060125493610b7d610b4f8661153f565b8a519384526020840195909552604083019190915260608201939093524260808201523392819060a0820190565b0390a2600f541115610b98575b602085856001865551908152f35b600160ff19601454161760145542601555610bc360135492610bbb835485611270565b0480936112b5565b9586610cb7575b60085416803b15610cb357838091838751809481936206a28f60ec1b83525af18015610ca957610c56575b5050907fefeb78ac4eec20435548e152a36af237c692a818a4bdbbdfe572c0691222f19a60c0600193602097610c2c60125461153f565b9160135488519384528a8401528783015260608201528360808201524260a0820152a19085610b8a565b67ffffffffffffffff819794929711610c965784529194507fefeb78ac4eec20435548e152a36af237c692a818a4bdbbdfe572c0691222f19a60c0610bf5565b634e487b7160e01b825260418752602482fd5b85513d86823e3d90fd5b8380fd5b610ccb8782600a541683600b54169061131d565b610bca565b610cf09060203d8111610cf7575b610ce881836112cf565b810190611305565b508a610b3e565b503d610cde565b88513d89823e3d90fd5b8551638199f5f360e01b81528390fd5b508251631e9acf1760e31b8152fd5b8251632ca2f52b60e11b8152fd5b8251630407b05b60e31b8152fd5b8251634065aaf160e11b8152fd5b634e487b7160e01b835260218252602483fd5b8382346103b557816003193601126103b5576020906015549051908152f35b8382346103b557816003193601126103b557600b5490516001600160a01b039091168152602090f35b8382346103b557816003193601126103b5576020906010549051908152f35b8382346103b557816003193601126103b5576020906013549051908152f35b8382346103b557816003193601126103b55760209051621275008152f35b8382346103b55760203660031901126103b55760209160ff9082906001600160a01b03610e33611244565b1681526017855220541690519015158152f35b508290346103b55760208060031936011261038a57610e63611244565b8360018060a01b03948386600854169360248751809981936370a0823160e01b83521696878c8301525afa958615610fc9578296610f9a575b5060ff601454166003811015610f8757801580610f7e575b80610f72575b15610f29575050610ed160125461020a87826112b5565b6032810281810460321482151715610f16576060975091610efa869261271060ff9504906112b5565b935b815260178552205416918351948552840152151590820152f35b634e487b7160e01b835260118852602483fd5b606097509160028692931480610f69575b610f48575b60ff9293610efc565b60ff9250670de0b6b3a7640000610f6160165489611270565b049250610f3f565b50861515610f3a565b50601254871115610eba565b50861515610eb4565b634e487b7160e01b835260218852602483fd5b9095508381813d8311610fc2575b610fb281836112cf565b810103126103b557519487610e9c565b503d610fa8565b85513d84823e3d90fd5b8382346103b557816003193601126103b5576020906012549051908152f35b50823461087957602036600319011261087957611016601254610a5c8535826112c2565b90601e820290828204601e148315171561103b576020846103ae6127108504866112c2565b634e487b7160e01b815260118552602490fd5b8382346103b557816003193601126103b5576020906002549051908152f35b8382346103b557816003193601126103b55760075490516001600160a01b039091168152602090f35b8382346103b557816003193601126103b5576020906011549051908152f35b50903461038a578260031936011261038a5760145460ff8116600381101561118e576103685760115442111561117f576127106110f7600f5460055490611270565b049160125492831015611171575060ff19166002176014557fe248b193005fc61662f12653c1377b0ba9587bfc0319f4f479494c78ce15975291908061115d575b601354601654925191825260208201526040810191909152426060820152608090a180f35b61116981601354611297565b601655611138565b835163192d9ef760e21b8152fd5b50905163d0404f8560e01b8152fd5b634e487b7160e01b855260218352602485fd5b508290346103b557816003193601126103b55760ff6014541690519160038210156111ce57602083838152f35b634e487b7160e01b815260218452602490fd5b8382346103b557816003193601126103b5576020906006549051908152f35b8382346103b557816003193601126103b557602090600e549051908152f35b8490346103b557816003193601126103b557600a546001600160a01b03168152602090f35b600435906001600160a01b038216820361069b57565b604090600319011261069b576004359060243590565b8181029291811591840414171561128357565b634e487b7160e01b5f52601160045260245ffd5b81156112a1570490565b634e487b7160e01b5f52601260045260245ffd5b9190820391821161128357565b9190820180921161128357565b90601f8019910116810190811067ffffffffffffffff8211176112f157604052565b634e487b7160e01b5f52604160045260245ffd5b9081602091031261069b5751801515810361069b5790565b60405163a9059cbb60e01b60208201526001600160a01b0392909216602483015260448083019390935291815261135e916113596064836112cf565b6113b5565b565b6040516323b872dd60e01b60208201526001600160a01b03928316602482015292909116604483015260648083019390935291815260a081019181831067ffffffffffffffff8411176112f15761135e926040525b60018060a01b0316905f80826020829451910182865af13d1561146d573d67ffffffffffffffff8111611459576040516114109392916113ff601f8201601f1916602001836112cf565b8152809260203d92013e5b8361147a565b805190811515918261143e575b50506114265750565b60249060405190635274afe760e01b82526004820152fd5b6114519250602080918301019101611305565b155f8061141d565b634e487b7160e01b83526041600452602483fd5b611410915060609061140a565b906114a1575080511561148f57805190602001fd5b604051630a12f52160e11b8152600490fd5b815115806114d4575b6114b2575090565b604051639996b31560e01b81526001600160a01b039091166004820152602490fd5b50803b156114aa565b60025f54146114ec5760025f55565b604051633ee5aeb560e01b8152600490fd5b6012548082116115395761020a61151592826112b5565b603281029080820460321481151715611283576127106115369204906112b5565b90565b50505f90565b600d54801561159257670de0b6b3a764000091828102928184041490151715611283576115726115779161153693611297565b61161c565b633b9aca0061158b60065492600354611270565b04906112c2565b505060065490565b80821115611539576115c4600654670de0b6b3a76400009182916115be85876112b5565b90611270565b04916115d084826112c2565b60011c82810292818404149015171561128357611536936115be61158b9261161661160e6115726b033b2e3c9fd0803ce800000097600d5490611297565b600354611270565b926112b5565b90811561166057600180830180841161128357811c90835b84831061164057505050565b90919350611657846116528184611297565b6112c2565b821c9190611634565b5f915056fea26469706673582212206dc6cad32b0b4f9d004e47f0b5d8574a5265770f2437d98cf70015cf1aede5eb64736f6c634300081400336080806040523461007c573315610067575f8054336001600160a01b03198216811783556040519290916001600160a01b0316907f8be0079c531659141344cd1fd0a4f28419497f9722a3daafe3b4186f6b6457e09080a360018055610d8390816100818239f35b631e4fbdf760e01b81525f6004820152602490fd5b5f80fdfe60806040818152600480361015610014575f80fd5b5f92833560e01c9081630a3cb21b14610ada575080630ef4b24814610aa25780632b71fb3a14610a0a5780632c3dcbc7146109255780632e46fed8146108085780633e413bee146108f8578063404b99a7146108955780635873eb9b1461085d5780635a383edc146108405780636268347f1461080857806363ec512d14610656578063668038e01461048a5780636f9fb98a146103f0578063715018a6146103935780638da5cb5b1461036b578063957fae961461026c578063aaf5eb6814610348578063b5713ff71461031f578063b9f8d02c1461028b578063bf2d9e0b1461026c578063c0c53b8b14610198578063d54ad2a1146101755763f2fde38b1461011d575f80fd5b3461017157602036600319011261017157610136610b15565b9161013f610b2f565b6001600160a01b0383161561015b578361015884610b5a565b80f35b51631e4fbdf760e01b8152908101839052602490fd5b8280fd5b5050346101945781600319360112610194576020906008549051908152f35b5080fd5b509034610171576060366003190112610171576101b3610b15565b906024359260018060a01b0391828516809503610268576044359280841684036102645760025460ff81166102565760ff1916600117600255841615801561024e575b61024157505061020590610b5a565b60028054610100600160a81b03191660089290921b610100600160a81b0316919091179055600380546001600160a01b03191691909117905580f35b5163d92e233d60e01b8152fd5b5084156101f6565b50505162dc149f60e41b8152fd5b8680fd5b8580fd5b5050346101945781600319360112610194576020906007549051908152f35b50346101715781600319360112610171576102a4610b15565b60035490916001600160a01b0391821633036103125790670de0b6b3a76400006102d46102ea9354602435610bd6565b0492169182855260056020528385205490610d40565b91826102f4578380f35b61030991845260066020528320918254610bfd565b90555f80808380f35b83516282b42960e81b8152fd5b50503461019457816003193601126101945760035490516001600160a01b039091168152602090f35b50503461019457816003193601126101945760209051670de0b6b3a76400008152f35b505034610194578160031936011261019457905490516001600160a01b039091168152602090f35b83346103ed57806003193601126103ed576103ac610b2f565b80546001600160a01b03198116825581906001600160a01b03167f8be0079c531659141344cd1fd0a4f28419497f9722a3daafe3b4186f6b6457e08280a380f35b80fd5b50903461017157826003193601126101715760025481516370a0823160e01b815230938101939093526020908390602490829060081c6001600160a01b03165afa918215610480578392610449575b6020838351908152f35b9091506020813d8211610478575b8161046460209383610ba0565b81010312610171576020925051905f61043f565b3d9150610457565b81513d85823e3d90fd5b5091903461019457816003193601126101945760026001541461064757600260015560035481516370a0823160e01b815233858201526020936001600160a01b03939290919085908290602490829088165afa90811561063d57829161060e575b50610501670de0b6b3a764000091875490610bd6565b04923382526005855261052b61051a8484205486610d40565b338452600687528484205490610bfd565b9384156105fe57338352600686528284812055600586528383205561055284600854610bfd565b6008553382526009855282822061056a858254610bfd565b905560025460081c1682519163a9059cbb60e01b8684015233602484015284604484015260448352608083019083821067ffffffffffffffff8311176105eb575083526105b79190610c0a565b80518281527f16b8533c95f66ab8c192c98ddcf5031bcb3ee6f4022988bdadd57d3422da3073843392a26001805551908152f35b634e487b7160e01b815260418852602490fd5b8351631495856360e01b81528790fd5b90508481813d8311610636575b6106258183610ba0565b8101031261019457516105016104eb565b503d61061b565b83513d84823e3d90fd5b51633ee5aeb560e01b81529050fd5b509190346101945760208060031936011261017157833590338452600a815260ff8385205416156107f95781156107e95760035483516318160ddd60e01b81526001600160a01b0391839082908990829086165afa9081156107df5786916107b2575b5080156107a257670de0b6b3a76400008402670de0b6b3a763ffff198582040161078f57906106ea91048754610bfd565b86556106f883600754610bfd565b60075560025460081c168351906323b872dd60e01b838301523360248301523060448301528360648301526064825260a0820182811067ffffffffffffffff82111761077c579161076e917f5d22f5d15d95ed39d12130528f910a501ad34deb0428d9227c9d316d9bcb99e99798938752610c0a565b54908351928352820152a180f35b634e487b7160e01b875260418852602487fd5b634e487b7160e01b875260118852602487fd5b8451632b5131d760e21b81528790fd5b90508281813d83116107d8575b6107c98183610ba0565b8101031261026857515f6106b9565b503d6107bf565b85513d88823e3d90fd5b8251631f2a200560e01b81528590fd5b82516282b42960e81b81528590fd5b5050346101945760203660031901126101945760209181906001600160a01b03610830610b15565b1681526009845220549051908152f35b503461017157826003193601126101715760209250549051908152f35b5050346101945760203660031901126101945760209181906001600160a01b03610885610b15565b1681526005845220549051908152f35b5090346101715780600319360112610171576108af610b15565b60035490926001600160a01b0391821633036108eb576108db670de0b6b3a76400009154602435610bd6565b0492168352600560205282205580f35b82516282b42960e81b8152fd5b505034610194578160031936011261019457600254905160089190911c6001600160a01b03168152602090f35b503461017157602092836003193601126103ed57610941610b15565b9060018060a01b03928584600354169360248751809781936370a0823160e01b8352169687868301525afa938415610a00579082918693956109c2575b50670de0b6b3a764000061099a6109bb966109ac935490610bd6565b04848352600588528383205490610d40565b92815260068652205490610bfd565b9051908152f35b809294955087809294503d83116109f9575b6109de8183610ba0565b81010312610171575192918491670de0b6b3a764000061097e565b503d6109d4565b85513d84823e3d90fd5b509034610171578060031936011261017157610a24610b15565b9060243591821515809303610a9e57610a3b610b2f565b6001600160a01b0316928315610a9057507f5f7d4cb639576e1450b98f978822e4bfa5bffa6ef0fcaa8e3ab5b0b1aa0bf04191602091848652600a835280862060ff1981541660ff841617905551908152a280f35b905163d92e233d60e01b8152fd5b8480fd5b5050346101945760203660031901126101945760209181906001600160a01b03610aca610b15565b1681526006845220549051908152f35b849084346101715760203660031901126101715760209260ff91906001600160a01b03610b05610b15565b168152600a855220541615158152f35b600435906001600160a01b0382168203610b2b57565b5f80fd5b5f546001600160a01b03163303610b4257565b60405163118cdaa760e01b8152336004820152602490fd5b5f80546001600160a01b039283166001600160a01b03198216811783559216907f8be0079c531659141344cd1fd0a4f28419497f9722a3daafe3b4186f6b6457e09080a3565b90601f8019910116810190811067ffffffffffffffff821117610bc257604052565b634e487b7160e01b5f52604160045260245ffd5b81810292918115918404141715610be957565b634e487b7160e01b5f52601160045260245ffd5b91908201809211610be957565b60018060a01b0316905f80826020829451910182865af13d15610cd1573d9067ffffffffffffffff8211610cbd5790610c659160405191610c556020601f19601f8401160184610ba0565b82523d84602084013e5b84610cdd565b908151918215159283610c95575b505050610c7d5750565b60249060405190635274afe760e01b82526004820152fd5b8192935090602091810103126101945760200151908115918215036103ed57505f8080610c73565b634e487b7160e01b83526041600452602483fd5b610c6590606090610c5f565b90610d045750805115610cf257805190602001fd5b604051630a12f52160e11b8152600490fd5b81511580610d37575b610d15575090565b604051639996b31560e01b81526001600160a01b039091166004820152602490fd5b50803b15610d0d565b91908203918211610be95756fea2646970667358221220ca9f4c508c50cce83f53d01fad56552ad98f581757d97aa839dce5b24518ccd864736f6c63430008140033","linkReferences":{}},"methodIdentifiers":{"configure(address,address,address)":"55d28f20","daoTreasury()":"79022a9f","datasetCount()":"3c8935b9","deployDataset(address,string,string,string,uint256,(uint256,uint256,uint256,uint256,uint256))":"f3619121","idoImplementation()":"032261fd","managerImplementation()":"9f4a5337","owner()":"8da5cb5b","poolImplementation()":"cefa7799","protocolTreasury()":"803db96d","renounceOwnership()":"715018a6","rentalManager()":"c278cff6","setImplementations(address,address,address,address)":"60b2fa76","tokenImplementation()":"2f3a3d5d","transferOwnership(address)":"f2fde38b","usdc()":"3e413bee"},"id":39}