{"abi":[{"type":"constructor","inputs":[],"stateMutability":"nonpayable"},{"type":"function","name":"BUY_FEE_RATE","inputs":[],"outputs":[{"name":"","type":"uint256","internalType":"uint256"}],"stateMutability":"view"},{"type":"function","name":"FEE_DENOMINATOR","inputs":[],"outputs":[{"name":"","type":"uint256","internalType":"uint256"}],"stateMutability":"view"},{"type":"function","name":"SALE_DURATION","inputs":[],"outputs":[{"name":"","type":"uint256","internalType":"uint256"}],"stateMutability":"view"},{"type":"function","name":"SELL_FEE_RATE","inputs":[],"outputs":[{"name":"","type":"uint256","internalType":"uint256"}],"stateMutability":"view"},{"type":"function","name":"TOTAL_SUPPLY","inputs":[],"outputs":[{"name":"","type":"uint256","internalType":"uint256"}],"stateMutability":"view"},{"type":"function","name":"alphaProject","inputs":[],"outputs":[{"name":"","type":"uint256","internalType":"uint256"}],"stateMutability":"view"},{"type":"function","name":"betaLP","inputs":[],"outputs":[{"name":"","type":"uint256","internalType":"uint256"}],"stateMutability":"view"},{"type":"function","name":"buyTokens","inputs":[{"name":"tokenAmount","type":"uint256","internalType":"uint256"},{"name":"maxCost","type":"uint256","internalType":"uint256"}],"outputs":[{"name":"cost","type":"uint256","internalType":"uint256"}],"stateMutability":"nonpayable"},{"type":"function","name":"calculateCost","inputs":[{"name":"tokenAmount","type":"uint256","internalType":"uint256"}],"outputs":[{"name":"cost","type":"uint256","internalType":"uint256"}],"stateMutability":"view"},{"type":"function","name":"calculateRefund","inputs":[{"name":"tokenAmount","type":"uint256","internalType":"uint256"}],"outputs":[{"name":"refund","type":"uint256","internalType":"uint256"}],"stateMutability":"view"},{"type":"function","name":"claimRefund","inputs":[],"outputs":[{"name":"refundAmount","type":"uint256","internalType":"uint256"}],"stateMutability":"nonpayable"},{"type":"function","name":"daoTreasury","inputs":[],"outputs":[{"name":"","type":"address","internalType":"address"}],"stateMutability":"view"},{"type":"function","name":"endTime","inputs":[],"outputs":[{"name":"","type":"uint256","internalType":"uint256"}],"stateMutability":"view"},{"type":"function","name":"getCurrentPrice","inputs":[],"outputs":[{"name":"price","type":"uint256","internalType":"uint256"}],"stateMutability":"view"},{"type":"function","name":"getProgress","inputs":[],"outputs":[{"name":"sold","type":"uint256","internalType":"uint256"},{"name":"target","type":"uint256","internalType":"uint256"},{"name":"percentage","type":"uint256","internalType":"uint256"},{"name":"timeLeft","type":"uint256","internalType":"uint256"}],"stateMutability":"view"},{"type":"function","name":"getUserInfo","inputs":[{"name":"user","type":"address","internalType":"address"}],"outputs":[{"name":"tokenBalance","type":"uint256","internalType":"uint256"},{"name":"potentialRefund","type":"uint256","internalType":"uint256"},{"name":"hasClaimed","type":"bool","internalType":"bool"}],"stateMutability":"view"},{"type":"function","name":"hasClaimedRefund","inputs":[{"name":"","type":"address","internalType":"address"}],"outputs":[{"name":"","type":"bool","internalType":"bool"}],"stateMutability":"view"},{"type":"function","name":"initialPrice","inputs":[],"outputs":[{"name":"","type":"uint256","internalType":"uint256"}],"stateMutability":"view"},{"type":"function","name":"initialize","inputs":[{"name":"alphaProject_","type":"uint256","internalType":"uint256"},{"name":"k_","type":"uint256","internalType":"uint256"},{"name":"betaLP_","type":"uint256","internalType":"uint256"},{"name":"minRaiseRatio_","type":"uint256","internalType":"uint256"},{"name":"initialPrice_","type":"uint256","internalType":"uint256"},{"name":"projectAddress_","type":"address","internalType":"address"},{"name":"tokenAddress_","type":"address","internalType":"address"},{"name":"usdcToken_","type":"address","internalType":"address"},{"name":"protocolTreasury_","type":"address","internalType":"address"},{"name":"daoTreasury_","type":"address","internalType":"address"},{"name":"rentalManager_","type":"address","internalType":"address"}],"outputs":[],"stateMutability":"nonpayable"},{"type":"function","name":"k","inputs":[],"outputs":[{"name":"","type":"uint256","internalType":"uint256"}],"stateMutability":"view"},{"type":"function","name":"launchTime","inputs":[],"outputs":[{"name":"","type":"uint256","internalType":"uint256"}],"stateMutability":"view"},{"type":"function","name":"minRaiseRatio","inputs":[],"outputs":[{"name":"","type":"uint256","internalType":"uint256"}],"stateMutability":"view"},{"type":"function","name":"projectAddress","inputs":[],"outputs":[{"name":"","type":"address","internalType":"address"}],"stateMutability":"view"},{"type":"function","name":"projectTokens","inputs":[],"outputs":[{"name":"","type":"uint256","internalType":"uint256"}],"stateMutability":"view"},{"type":"function","name":"protocolTreasury","inputs":[],"outputs":[{"name":"","type":"address","internalType":"address"}],"stateMutability":"view"},{"type":"function","name":"refundRate","inputs":[],"outputs":[{"name":"","type":"uint256","internalType":"uint256"}],"stateMutability":"view"},{"type":"function","name":"rentalManager","inputs":[],"outputs":[{"name":"","type":"address","internalType":"address"}],"stateMutability":"view"},{"type":"function","name":"salableTokens","inputs":[],"outputs":[{"name":"","type":"uint256","internalType":"uint256"}],"stateMutability":"view"},{"type":"function","name":"sellTokens","inputs":[{"name":"tokenAmount","type":"uint256","internalType":"uint256"},{"name":"minRefund","type":"uint256","internalType":"uint256"}],"outputs":[{"name":"refund","type":"uint256","internalType":"uint256"}],"stateMutability":"nonpayable"},{"type":"function","name":"soldTokens","inputs":[],"outputs":[{"name":"","type":"uint256","internalType":"uint256"}],"stateMutability":"view"},{"type":"function","name":"startTime","inputs":[],"outputs":[{"name":"","type":"uint256","internalType":"uint256"}],"stateMutability":"view"},{"type":"function","name":"status","inputs":[],"outputs":[{"name":"","type":"uint8","internalType":"enum IDO.Status"}],"stateMutability":"view"},{"type":"function","name":"targetTokens","inputs":[],"outputs":[{"name":"","type":"uint256","internalType":"uint256"}],"stateMutability":"view"},{"type":"function","name":"tokenAddress","inputs":[],"outputs":[{"name":"","type":"address","internalType":"address"}],"stateMutability":"view"},{"type":"function","name":"triggerRefund","inputs":[],"outputs":[],"stateMutability":"nonpayable"},{"type":"function","name":"usdcBalance","inputs":[],"outputs":[{"name":"","type":"uint256","internalType":"uint256"}],"stateMutability":"view"},{"type":"function","name":"usdcToken","inputs":[],"outputs":[{"name":"","type":"address","internalType":"address"}],"stateMutability":"view"},{"type":"event","name":"IDOFailed","inputs":[{"name":"soldTokens","type":"uint256","indexed":false,"internalType":"uint256"},{"name":"usdcBalance","type":"uint256","indexed":false,"internalType":"uint256"},{"name":"refundRate","type":"uint256","indexed":false,"internalType":"uint256"},{"name":"timestamp","type":"uint256","indexed":false,"internalType":"uint256"}],"anonymous":false},{"type":"event","name":"IDOLaunched","inputs":[{"name":"finalPrice","type":"uint256","indexed":false,"internalType":"uint256"},{"name":"totalRaised","type":"uint256","indexed":false,"internalType":"uint256"},{"name":"lpUSDC","type":"uint256","indexed":false,"internalType":"uint256"},{"name":"projectFunding","type":"uint256","indexed":false,"internalType":"uint256"},{"name":"lpTokensLocked","type":"uint256","indexed":false,"internalType":"uint256"},{"name":"timestamp","type":"uint256","indexed":false,"internalType":"uint256"}],"anonymous":false},{"type":"event","name":"RefundClaimed","inputs":[{"name":"user","type":"address","indexed":true,"internalType":"address"},{"name":"tokenAmount","type":"uint256","indexed":false,"internalType":"uint256"},{"name":"usdcAmount","type":"uint256","indexed":false,"internalType":"uint256"},{"name":"timestamp","type":"uint256","indexed":false,"internalType":"uint256"}],"anonymous":false},{"type":"event","name":"TokensPurchased","inputs":[{"name":"buyer","type":"address","indexed":true,"internalType":"address"},{"name":"tokenAmount","type":"uint256","indexed":false,"internalType":"uint256"},{"name":"usdcCost","type":"uint256","indexed":false,"internalType":"uint256"},{"name":"fee","type":"uint256","indexed":false,"internalType":"uint256"},{"name":"newPrice","type":"uint256","indexed":false,"internalType":"uint256"},{"name":"timestamp","type":"uint256","indexed":false,"internalType":"uint256"}],"anonymous":false},{"type":"event","name":"TokensSold","inputs":[{"name":"seller","type":"address","indexed":true,"internalType":"address"},{"name":"tokenAmount","type":"uint256","indexed":false,"internalType":"uint256"},{"name":"usdcRefund","type":"uint256","indexed":false,"internalType":"uint256"},{"name":"fee","type":"uint256","indexed":false,"internalType":"uint256"},{"name":"newPrice","type":"uint256","indexed":false,"internalType":"uint256"},{"name":"timestamp","type":"uint256","indexed":false,"internalType":"uint256"}],"anonymous":false},{"type":"error","name":"AddressEmptyCode","inputs":[{"name":"target","type":"address","internalType":"address"}]},{"type":"error","name":"AddressInsufficientBalance","inputs":[{"name":"account","type":"address","internalType":"address"}]},{"type":"error","name":"AlreadyClaimed","inputs":[]},{"type":"error","name":"AlreadyInitialized","inputs":[]},{"type":"error","name":"CannotReachTarget","inputs":[]},{"type":"error","name":"Expired","inputs":[]},{"type":"error","name":"FailedInnerCall","inputs":[]},{"type":"error","name":"InsufficientAmount","inputs":[]},{"type":"error","name":"InsufficientBalance","inputs":[]},{"type":"error","name":"InsufficientUSDC","inputs":[]},{"type":"error","name":"InvalidParameters","inputs":[]},{"type":"error","name":"NotActive","inputs":[]},{"type":"error","name":"NotExpired","inputs":[]},{"type":"error","name":"NotFailed","inputs":[]},{"type":"error","name":"ReentrancyGuardReentrantCall","inputs":[]},{"type":"error","name":"SafeERC20FailedOperation","inputs":[{"name":"token","type":"address","internalType":"address"}]},{"type":"error","name":"SlippageExceeded","inputs":[]},{"type":"error","name":"ZeroAddress","inputs":[]}],"bytecode":{"object":"0x6080806040523461001a5760015f5561169b908161001f8239f35b5f80fdfe6080604081815260049081361015610015575f80fd5b5f92833560e01c90816311eac8551461121f5750806317888efc146112005780631d0806ae146111e1578063200d2ed2146111a1578063263d4878146110b55780633197cbb6146110965780633cf96af11461106d578063468c51441461104e5780634af18f4f14610ff25780635ed9ebfc14610fd35780636386c1c714610e4657806368a94dfc14610e085780636d79207c14610dea57806373688e5614610dcb57806378e9792514610dac57806379022a9f14610d83578063790ca41314610d645780637975ce28146109fb578063803db96d146109d2578063831cb8e8146109b3578063902d55a51461098d578063939c4456146108e0578063973e8c09146108c45780639d76ea581461089b578063a725f9b11461087c578063a8c6acda14610859578063b4f40c611461083a578063b5545a3c146106be578063b66c6f051461069f578063c0454d6e14610458578063c278cff61461042f578063cfebb19a14610410578063d73792a9146103f3578063da3f89db146103d5578063e85074d6146103b9578063eb91d37e1461038e5763ed9772b6146101b8575f80fd5b3461038a576101c63661125a565b92906101d06114dd565b60ff6014541660038110156103775761036857601154421161035957801561034a5760125480821161033a578061020a8361020f936112b5565b61159a565b9160328302838104603214841517156103275761271090049061023282856112b5565b95861061031957836013541061030b5750917f0db49c84bba47806cd98c426100d458b5859594553fc51f0ce13852e9e1ca1c9602096926001946102c588878060a01b0361028885826008541630903390611360565b610294876013546112b5565b6013556102a3856012546112b5565b6012556102ba8482600a541683600954169061131d565b3390600a541661131d565b6103016102d360125461153f565b88519384526020840195909552604083019190915260608201939093524260808201523392819060a0820190565b0390a25551908152f35b845163fe7e4c3560e01b8152fd5b8451638199f5f360e01b8152fd5b634e487b7160e01b875260118252602487fd5b8351631e9acf1760e31b81528390fd5b509051632ca2f52b60e11b8152fd5b509051630407b05b60e31b8152fd5b509051634065aaf160e11b8152fd5b634e487b7160e01b865260218352602486fd5b8280fd5b8382346103b557816003193601126103b5576020906103ae60125461153f565b9051908152f35b5080fd5b8382346103b557816003193601126103b5576020905160328152f35b50903461038a578260031936011261038a5760209250549051908152f35b8382346103b557816003193601126103b557602090516127108152f35b8382346103b557816003193601126103b557602090600f549051908152f35b8382346103b557816003193601126103b557600c5490516001600160a01b039091168152602090f35b50903461038a5761016036600319011261038a57602435918135906001600160a01b0360a4358181169060443590606435906084359084900361069b5760c43585811680910361069b5760e4359186831680930361069b57610104359387851680950361069b57610124359588871680970361069b576101443598891680990361069b576001549c60ff8e1661068c57600160ff199e8f161760015588158015610684575b801561067c575b8015610674575b801561066c575b8015610664575b610654576127109a8b8d1080159061064a575b61062a5761138884108015610641575b61062a5781158015610639575b61062a57508b6002556003558b556005556006556bffffffffffffffffffffffff60a01b9485600754161760075584600854161760085583600a541617600a5582600954161760095581600b541617600b55600c541617600c556a084595161401484a000000918083029083820403610617570480600e5581039081116106045780600d55600f5542601055621275004201908142116105f157506011556014541660145580f35b634e487b7160e01b845260119052602483fd5b634e487b7160e01b845260118252602484fd5b634e487b7160e01b865260118452602486fd5b51630e52390960e41b81528d90fd5b508415610549565b508b841161053c565b508b83101561052c565b8a5163d92e233d60e01b81528d90fd5b508915610519565b508715610512565b50861561050b565b508515610504565b5084156104fd565b8a5162dc149f60e41b81528d90fd5b5f80fd5b8382346103b557816003193601126103b5576020906005549051908152f35b503461038a578260031936011261038a576106d76114dd565b60ff6014541660038110156108275760020361081a573383526020926017845260ff828220541661080c5760085482516370a0823160e01b815233818601526001600160a01b0394909186908390602490829089165afa9182156108025783926107d3575b5081156107c5575090600191610789670de0b6b3a764000061076060165484611270565b048096338552601789528685208660ff198254161790556102ba84826008541630903390611360565b8351908152848682015242848201527f2a62c9fef01ce4cfe24b93ff7cef58e2c929cc918e5d27a85cb76dd6bbbd6d1560603392a25551908152f35b8351631e9acf1760e31b8152fd5b9091508581813d83116107fb575b6107eb81836112cf565b8101031261069b5751905f61073c565b503d6107e1565b84513d85823e3d90fd5b5051630c8d9eab60e31b8152fd5b51637d7c293760e01b8152fd5b634e487b7160e01b845260218352602484fd5b8382346103b557816003193601126103b5576020906003549051908152f35b50823461087957602036600319011261087957506103ae602092356114fe565b80fd5b8382346103b557816003193601126103b557602090600d549051908152f35b8382346103b557816003193601126103b55760085490516001600160a01b039091168152602090f35b8382346103b557816003193601126103b55760209051601e8152f35b508290346103b557816003193601126103b557601254600f549290919083156109805761271080840290848204148415171561096d57846109579495965061092791611297565b905b60115442811161095b5750915b51948594859094939260609260808301968352602083015260408201520152565b0390f35b610967915042906112b5565b91610936565b634e487b7160e01b825260118652602482fd5b6109579293945080610929565b8382346103b557816003193601126103b557602090516a084595161401484a0000008152f35b8382346103b557816003193601126103b5576020906016549051908152f35b8382346103b557816003193601126103b55760095490516001600160a01b039091168152602090f35b508290346103b557610a0c3661125a565b929093610a176114dd565b60ff601454166003811015610d5157610d43576011544211610d35578415610d2757601254610a4686826112c2565b600d5410610d185780610a5c87610a62936112c2565b9061159a565b90601e820291808304601e14811517156106045761271080930490610a8782826112c2565b968711610d0857600a546001600160a01b039890610aac908990309033908d16611360565b610ac0838a600a54168b600954169061131d565b610acc826013546112c2565b601355610adb816012546112c2565b601255600854875163a9059cbb60e01b8152338682019081526020808201859052919283918290036040019082908b908f165af18015610cfe57907f6aca558a17acdb28cf36bd17a224740ed6c6a73de4aff1f9aca8c03ec27d2ea89291610cd0575b5060125493610b7d610b4f8661153f565b8a519384526020840195909552604083019190915260608201939093524260808201523392819060a0820190565b0390a2600f541115610b98575b602085856001865551908152f35b600160ff19601454161760145542601555610bc360135492610bbb835485611270565b0480936112b5565b9586610cb7575b60085416803b15610cb357838091838751809481936206a28f60ec1b83525af18015610ca957610c56575b5050907fefeb78ac4eec20435548e152a36af237c692a818a4bdbbdfe572c0691222f19a60c0600193602097610c2c60125461153f565b9160135488519384528a8401528783015260608201528360808201524260a0820152a19085610b8a565b67ffffffffffffffff819794929711610c965784529194507fefeb78ac4eec20435548e152a36af237c692a818a4bdbbdfe572c0691222f19a60c0610bf5565b634e487b7160e01b825260418752602482fd5b85513d86823e3d90fd5b8380fd5b610ccb8782600a541683600b54169061131d565b610bca565b610cf09060203d8111610cf7575b610ce881836112cf565b810190611305565b508a610b3e565b503d610cde565b88513d89823e3d90fd5b8551638199f5f360e01b81528390fd5b508251631e9acf1760e31b8152fd5b8251632ca2f52b60e11b8152fd5b8251630407b05b60e31b8152fd5b8251634065aaf160e11b8152fd5b634e487b7160e01b835260218252602483fd5b8382346103b557816003193601126103b5576020906015549051908152f35b8382346103b557816003193601126103b557600b5490516001600160a01b039091168152602090f35b8382346103b557816003193601126103b5576020906010549051908152f35b8382346103b557816003193601126103b5576020906013549051908152f35b8382346103b557816003193601126103b55760209051621275008152f35b8382346103b55760203660031901126103b55760209160ff9082906001600160a01b03610e33611244565b1681526017855220541690519015158152f35b508290346103b55760208060031936011261038a57610e63611244565b8360018060a01b03948386600854169360248751809981936370a0823160e01b83521696878c8301525afa958615610fc9578296610f9a575b5060ff601454166003811015610f8757801580610f7e575b80610f72575b15610f29575050610ed160125461020a87826112b5565b6032810281810460321482151715610f16576060975091610efa869261271060ff9504906112b5565b935b815260178552205416918351948552840152151590820152f35b634e487b7160e01b835260118852602483fd5b606097509160028692931480610f69575b610f48575b60ff9293610efc565b60ff9250670de0b6b3a7640000610f6160165489611270565b049250610f3f565b50861515610f3a565b50601254871115610eba565b50861515610eb4565b634e487b7160e01b835260218852602483fd5b9095508381813d8311610fc2575b610fb281836112cf565b810103126103b557519487610e9c565b503d610fa8565b85513d84823e3d90fd5b8382346103b557816003193601126103b5576020906012549051908152f35b50823461087957602036600319011261087957611016601254610a5c8535826112c2565b90601e820290828204601e148315171561103b576020846103ae6127108504866112c2565b634e487b7160e01b815260118552602490fd5b8382346103b557816003193601126103b5576020906002549051908152f35b8382346103b557816003193601126103b55760075490516001600160a01b039091168152602090f35b8382346103b557816003193601126103b5576020906011549051908152f35b50903461038a578260031936011261038a5760145460ff8116600381101561118e576103685760115442111561117f576127106110f7600f5460055490611270565b049160125492831015611171575060ff19166002176014557fe248b193005fc61662f12653c1377b0ba9587bfc0319f4f479494c78ce15975291908061115d575b601354601654925191825260208201526040810191909152426060820152608090a180f35b61116981601354611297565b601655611138565b835163192d9ef760e21b8152fd5b50905163d0404f8560e01b8152fd5b634e487b7160e01b855260218352602485fd5b508290346103b557816003193601126103b55760ff6014541690519160038210156111ce57602083838152f35b634e487b7160e01b815260218452602490fd5b8382346103b557816003193601126103b5576020906006549051908152f35b8382346103b557816003193601126103b557602090600e549051908152f35b8490346103b557816003193601126103b557600a546001600160a01b03168152602090f35b600435906001600160a01b038216820361069b57565b604090600319011261069b576004359060243590565b8181029291811591840414171561128357565b634e487b7160e01b5f52601160045260245ffd5b81156112a1570490565b634e487b7160e01b5f52601260045260245ffd5b9190820391821161128357565b9190820180921161128357565b90601f8019910116810190811067ffffffffffffffff8211176112f157604052565b634e487b7160e01b5f52604160045260245ffd5b9081602091031261069b5751801515810361069b5790565b60405163a9059cbb60e01b60208201526001600160a01b0392909216602483015260448083019390935291815261135e916113596064836112cf565b6113b5565b565b6040516323b872dd60e01b60208201526001600160a01b03928316602482015292909116604483015260648083019390935291815260a081019181831067ffffffffffffffff8411176112f15761135e926040525b60018060a01b0316905f80826020829451910182865af13d1561146d573d67ffffffffffffffff8111611459576040516114109392916113ff601f8201601f1916602001836112cf565b8152809260203d92013e5b8361147a565b805190811515918261143e575b50506114265750565b60249060405190635274afe760e01b82526004820152fd5b6114519250602080918301019101611305565b155f8061141d565b634e487b7160e01b83526041600452602483fd5b611410915060609061140a565b906114a1575080511561148f57805190602001fd5b604051630a12f52160e11b8152600490fd5b815115806114d4575b6114b2575090565b604051639996b31560e01b81526001600160a01b039091166004820152602490fd5b50803b156114aa565b60025f54146114ec5760025f55565b604051633ee5aeb560e01b8152600490fd5b6012548082116115395761020a61151592826112b5565b603281029080820460321481151715611283576127106115369204906112b5565b90565b50505f90565b600d54801561159257670de0b6b3a764000091828102928184041490151715611283576115726115779161153693611297565b61161c565b633b9aca0061158b60065492600354611270565b04906112c2565b505060065490565b80821115611539576115c4600654670de0b6b3a76400009182916115be85876112b5565b90611270565b04916115d084826112c2565b60011c82810292818404149015171561128357611536936115be61158b9261161661160e6115726b033b2e3c9fd0803ce800000097600d5490611297565b600354611270565b926112b5565b90811561166057600180830180841161128357811c90835b84831061164057505050565b90919350611657846116528184611297565b6112c2565b821c9190611634565b5f915056fea26469706673582212206dc6cad32b0b4f9d004e47f0b5d8574a5265770f2437d98cf70015cf1aede5eb64736f6c63430008140033","linkReferences":{}},"methodIdentifiers":{"BUY_FEE_RATE()":"973e8c09","FEE_DENOMINATOR()":"d73792a9","SALE_DURATION()":"6d79207c","SELL_FEE_RATE()":"e85074d6","TOTAL_SUPPLY()":"902d55a5","alphaProject()":"468c5144","betaLP()":"da3f89db","buyTokens(uint256,uint256)":"7975ce28","calculateCost(uint256)":"4af18f4f","calculateRefund(uint256)":"a8c6acda","claimRefund()":"b5545a3c","daoTreasury()":"79022a9f","endTime()":"3197cbb6","getCurrentPrice()":"eb91d37e","getProgress()":"939c4456","getUserInfo(address)":"6386c1c7","hasClaimedRefund(address)":"68a94dfc","initialPrice()":"1d0806ae","initialize(uint256,uint256,uint256,uint256,uint256,address,address,address,address,address,address)":"c0454d6e","k()":"b4f40c61","launchTime()":"790ca413","minRaiseRatio()":"b66c6f05","projectAddress()":"3cf96af1","projectTokens()":"17888efc","protocolTreasury()":"803db96d","refundRate()":"831cb8e8","rentalManager()":"c278cff6","salableTokens()":"a725f9b1","sellTokens(uint256,uint256)":"ed9772b6","soldTokens()":"5ed9ebfc","startTime()":"78e97925","status()":"200d2ed2","targetTokens()":"cfebb19a","tokenAddress()":"9d76ea58","triggerRefund()":"263d4878","usdcBalance()":"73688e56","usdcToken()":"11eac855"},"id":40}