{"abi":[{"type":"constructor","inputs":[{"name":"usdc_","type":"address","internalType":"address"},{"name":"initialOwner_","type":"address","internalType":"address"}],"stateMutability":"nonpayable"},{"type":"function","name":"FEE_DENOMINATOR","inputs":[],"outputs":[{"name":"","type":"uint256","internalType":"uint256"}],"stateMutability":"view"},{"type":"function","name":"PROTOCOL_FEE_RATE","inputs":[],"outputs":[{"name":"","type":"uint256","internalType":"uint256"}],"stateMutability":"view"},{"type":"function","name":"accumulatedRevenue","inputs":[{"name":"","type":"address","internalType":"address"}],"outputs":[{"name":"","type":"uint256","internalType":"uint256"}],"stateMutability":"view"},{"type":"function","name":"authorizedBackends","inputs":[{"name":"","type":"address","internalType":"address"}],"outputs":[{"name":"","type":"bool","internalType":"bool"}],"stateMutability":"view"},{"type":"function","name":"calculateUnlockableLP","inputs":[{"name":"datasetToken","type":"address","internalType":"address"}],"outputs":[{"name":"unlockable","type":"uint256","internalType":"uint256"}],"stateMutability":"view"},{"type":"function","name":"datasetManager","inputs":[],"outputs":[{"name":"","type":"address","internalType":"address"}],"stateMutability":"view"},{"type":"function","name":"datasetRentalPools","inputs":[{"name":"","type":"address","internalType":"address"}],"outputs":[{"name":"","type":"address","internalType":"address"}],"stateMutability":"view"},{"type":"function","name":"factory","inputs":[],"outputs":[{"name":"","type":"address","internalType":"address"}],"stateMutability":"view"},{"type":"function","name":"getActiveRentals","inputs":[{"name":"user","type":"address","internalType":"address"},{"name":"datasetToken","type":"address","internalType":"address"}],"outputs":[{"name":"","type":"tuple[]","internalType":"struct RentalManager.Rental[]","components":[{"name":"user","type":"address","internalType":"address"},{"name":"paidAmount","type":"uint256","internalType":"uint256"},{"name":"hoursQuota","type":"uint256","internalType":"uint256"},{"name":"usedMinutes","type":"uint256","internalType":"uint256"},{"name":"purchasedAt","type":"uint256","internalType":"uint256"},{"name":"isActive","type":"bool","internalType":"bool"}]}],"stateMutability":"view"},{"type":"function","name":"getLPLockInfo","inputs":[{"name":"datasetToken","type":"address","internalType":"address"}],"outputs":[{"name":"lpToken","type":"address","internalType":"address"},{"name":"totalAmount","type":"uint256","internalType":"uint256"},{"name":"lpValueUSDC","type":"uint256","internalType":"uint256"},{"name":"claimedAmount","type":"uint256","internalType":"uint256"},{"name":"projectAddress","type":"address","internalType":"address"},{"name":"startTime","type":"uint256","internalType":"uint256"}],"stateMutability":"view"},{"type":"function","name":"hourlyRate","inputs":[{"name":"","type":"address","internalType":"address"}],"outputs":[{"name":"","type":"uint256","internalType":"uint256"}],"stateMutability":"view"},{"type":"function","name":"idoContract","inputs":[],"outputs":[{"name":"","type":"address","internalType":"address"}],"stateMutability":"view"},{"type":"function","name":"lockLP","inputs":[{"name":"datasetToken","type":"address","internalType":"address"},{"name":"lpToken","type":"address","internalType":"address"},{"name":"amount","type":"uint256","internalType":"uint256"},{"name":"lpValueUSDC","type":"uint256","internalType":"uint256"},{"name":"projectAddress","type":"address","internalType":"address"}],"outputs":[],"stateMutability":"nonpayable"},{"type":"function","name":"lpLocks","inputs":[{"name":"","type":"address","internalType":"address"}],"outputs":[{"name":"lpToken","type":"address","internalType":"address"},{"name":"totalAmount","type":"uint256","internalType":"uint256"},{"name":"lpValueUSDC","type":"uint256","internalType":"uint256"},{"name":"claimedAmount","type":"uint256","internalType":"uint256"},{"name":"projectAddress","type":"address","internalType":"address"},{"name":"startTime","type":"uint256","internalType":"uint256"}],"stateMutability":"view"},{"type":"function","name":"owner","inputs":[],"outputs":[{"name":"","type":"address","internalType":"address"}],"stateMutability":"view"},{"type":"function","name":"protocolTreasury","inputs":[],"outputs":[{"name":"","type":"address","internalType":"address"}],"stateMutability":"view"},{"type":"function","name":"purchaseAccess","inputs":[{"name":"datasetToken","type":"address","internalType":"address"},{"name":"hoursCount","type":"uint256","internalType":"uint256"}],"outputs":[],"stateMutability":"nonpayable"},{"type":"function","name":"recordUsage","inputs":[{"name":"user","type":"address","internalType":"address"},{"name":"datasetToken","type":"address","internalType":"address"},{"name":"rentalIndex","type":"uint256","internalType":"uint256"},{"name":"additionalMinutes","type":"uint256","internalType":"uint256"},{"name":"signature","type":"bytes","internalType":"bytes"}],"outputs":[],"stateMutability":"nonpayable"},{"type":"function","name":"renounceOwnership","inputs":[],"outputs":[],"stateMutability":"nonpayable"},{"type":"function","name":"rentalPool","inputs":[],"outputs":[{"name":"","type":"address","internalType":"address"}],"stateMutability":"view"},{"type":"function","name":"setAuthorizedBackend","inputs":[{"name":"backend","type":"address","internalType":"address"},{"name":"authorized","type":"bool","internalType":"bool"}],"outputs":[],"stateMutability":"nonpayable"},{"type":"function","name":"setDatasetManager","inputs":[{"name":"datasetManager_","type":"address","internalType":"address"}],"outputs":[],"stateMutability":"nonpayable"},{"type":"function","name":"setDatasetRentalPool","inputs":[{"name":"datasetToken","type":"address","internalType":"address"},{"name":"rentalPool_","type":"address","internalType":"address"}],"outputs":[],"stateMutability":"nonpayable"},{"type":"function","name":"setFactory","inputs":[{"name":"factory_","type":"address","internalType":"address"}],"outputs":[],"stateMutability":"nonpayable"},{"type":"function","name":"setIDOContract","inputs":[{"name":"idoContract_","type":"address","internalType":"address"}],"outputs":[],"stateMutability":"nonpayable"},{"type":"function","name":"setProtocolTreasury","inputs":[{"name":"protocolTreasury_","type":"address","internalType":"address"}],"outputs":[],"stateMutability":"nonpayable"},{"type":"function","name":"setRentalPool","inputs":[{"name":"rentalPool_","type":"address","internalType":"address"}],"outputs":[],"stateMutability":"nonpayable"},{"type":"function","name":"totalCollected","inputs":[{"name":"","type":"address","internalType":"address"}],"outputs":[{"name":"","type":"uint256","internalType":"uint256"}],"stateMutability":"view"},{"type":"function","name":"transferOwnership","inputs":[{"name":"newOwner","type":"address","internalType":"address"}],"outputs":[],"stateMutability":"nonpayable"},{"type":"function","name":"updatePrice","inputs":[{"name":"datasetToken","type":"address","internalType":"address"},{"name":"newPricePerHour","type":"uint256","internalType":"uint256"}],"outputs":[],"stateMutability":"nonpayable"},{"type":"function","name":"usdc","inputs":[],"outputs":[{"name":"","type":"address","internalType":"contract IERC20"}],"stateMutability":"view"},{"type":"function","name":"userRentals","inputs":[{"name":"","type":"address","internalType":"address"},{"name":"","type":"address","internalType":"address"},{"name":"","type":"uint256","internalType":"uint256"}],"outputs":[{"name":"user","type":"address","internalType":"address"},{"name":"paidAmount","type":"uint256","internalType":"uint256"},{"name":"hoursQuota","type":"uint256","internalType":"uint256"},{"name":"usedMinutes","type":"uint256","internalType":"uint256"},{"name":"purchasedAt","type":"uint256","internalType":"uint256"},{"name":"isActive","type":"bool","internalType":"bool"}],"stateMutability":"view"},{"type":"function","name":"withdrawLP","inputs":[{"name":"datasetToken","type":"address","internalType":"address"}],"outputs":[],"stateMutability":"nonpayable"},{"type":"event","name":"AccessPurchased","inputs":[{"name":"user","type":"address","indexed":true,"internalType":"address"},{"name":"datasetToken","type":"address","indexed":true,"internalType":"address"},{"name":"hoursCount","type":"uint256","indexed":false,"internalType":"uint256"},{"name":"cost","type":"uint256","indexed":false,"internalType":"uint256"}],"anonymous":false},{"type":"event","name":"BackendAuthorizationChanged","inputs":[{"name":"backend","type":"address","indexed":true,"internalType":"address"},{"name":"authorized","type":"bool","indexed":false,"internalType":"bool"}],"anonymous":false},{"type":"event","name":"DatasetManagerSet","inputs":[{"name":"datasetManager","type":"address","indexed":true,"internalType":"address"}],"anonymous":false},{"type":"event","name":"IDOContractSet","inputs":[{"name":"idoContract","type":"address","indexed":true,"internalType":"address"}],"anonymous":false},{"type":"event","name":"LPLocked","inputs":[{"name":"datasetToken","type":"address","indexed":true,"internalType":"address"},{"name":"lpToken","type":"address","indexed":true,"internalType":"address"},{"name":"projectAddress","type":"address","indexed":true,"internalType":"address"},{"name":"amount","type":"uint256","indexed":false,"internalType":"uint256"},{"name":"lpValueUSDC","type":"uint256","indexed":false,"internalType":"uint256"}],"anonymous":false},{"type":"event","name":"LPWithdrawn","inputs":[{"name":"datasetToken","type":"address","indexed":true,"internalType":"address"},{"name":"amount","type":"uint256","indexed":false,"internalType":"uint256"},{"name":"totalClaimed","type":"uint256","indexed":false,"internalType":"uint256"}],"anonymous":false},{"type":"event","name":"OwnershipTransferred","inputs":[{"name":"previousOwner","type":"address","indexed":true,"internalType":"address"},{"name":"newOwner","type":"address","indexed":true,"internalType":"address"}],"anonymous":false},{"type":"event","name":"PriceUpdated","inputs":[{"name":"datasetToken","type":"address","indexed":true,"internalType":"address"},{"name":"newPrice","type":"uint256","indexed":false,"internalType":"uint256"}],"anonymous":false},{"type":"event","name":"ProtocolTreasurySet","inputs":[{"name":"protocolTreasury","type":"address","indexed":true,"internalType":"address"}],"anonymous":false},{"type":"event","name":"RentalDistributed","inputs":[{"name":"datasetToken","type":"address","indexed":true,"internalType":"address"},{"name":"totalAmount","type":"uint256","indexed":false,"internalType":"uint256"},{"name":"protocolFee","type":"uint256","indexed":false,"internalType":"uint256"},{"name":"dividend","type":"uint256","indexed":false,"internalType":"uint256"}],"anonymous":false},{"type":"event","name":"RentalPoolSet","inputs":[{"name":"rentalPool","type":"address","indexed":true,"internalType":"address"}],"anonymous":false},{"type":"event","name":"RevenueAccumulated","inputs":[{"name":"datasetToken","type":"address","indexed":true,"internalType":"address"},{"name":"additionalRevenue","type":"uint256","indexed":false,"internalType":"uint256"},{"name":"totalRevenue","type":"uint256","indexed":false,"internalType":"uint256"}],"anonymous":false},{"type":"event","name":"UsageRecorded","inputs":[{"name":"user","type":"address","indexed":true,"internalType":"address"},{"name":"datasetToken","type":"address","indexed":true,"internalType":"address"},{"name":"rentalIndex","type":"uint256","indexed":true,"internalType":"uint256"},{"name":"additionalMinutes","type":"uint256","indexed":false,"internalType":"uint256"},{"name":"totalUsedMinutes","type":"uint256","indexed":false,"internalType":"uint256"}],"anonymous":false},{"type":"error","name":"AddressEmptyCode","inputs":[{"name":"target","type":"address","internalType":"address"}]},{"type":"error","name":"AddressInsufficientBalance","inputs":[{"name":"account","type":"address","internalType":"address"}]},{"type":"error","name":"AlreadySet","inputs":[]},{"type":"error","name":"FailedInnerCall","inputs":[]},{"type":"error","name":"InvalidPrice","inputs":[]},{"type":"error","name":"InvalidSignature","inputs":[]},{"type":"error","name":"NoUnlockableLP","inputs":[]},{"type":"error","name":"OwnableInvalidOwner","inputs":[{"name":"owner","type":"address","internalType":"address"}]},{"type":"error","name":"OwnableUnauthorizedAccount","inputs":[{"name":"account","type":"address","internalType":"address"}]},{"type":"error","name":"QuotaExceeded","inputs":[]},{"type":"error","name":"ReentrancyGuardReentrantCall","inputs":[]},{"type":"error","name":"RentalNotActive","inputs":[]},{"type":"error","name":"SafeERC20FailedOperation","inputs":[{"name":"token","type":"address","internalType":"address"}]},{"type":"error","name":"Unauthorized","inputs":[]},{"type":"error","name":"ZeroAddress","inputs":[]},{"type":"error","name":"ZeroAmount","inputs":[]}],"bytecode":{"object":"0x60a0346200010657601f62001c0f38819003918201601f19168301916001600160401b038311848410176200010a578084926040948552833981010312620001065760206200004e826200011e565b916001600160a01b039182916200006691016200011e565b16918215620000ee575f80546001600160a01b03198116851782556040519491908416907f8be0079c531659141344cd1fd0a4f28419497f9722a3daafe3b4186f6b6457e09080a36001805516908115620000df5750608052604051611adb9081620001348239608051818181610c74015261118e0152f35b63d92e233d60e01b8152600490fd5b604051631e4fbdf760e01b81525f6004820152602490fd5b5f80fd5b634e487b7160e01b5f52604160045260245ffd5b51906001600160a01b0382168203620001065756fe60806040526004361015610011575f80fd5b5f803560e01c80630999f424146111235780630c5a61f8146110af57806310f0dde414611092578063116f71ac14611069578063122a7d2d1461102d57806315b4ad3014610ff4578063218bb93d14610f8057806327964c3b14610d175780632dc44f5d14610ca35780633e413bee14610c5e578063457972de14610bc35780634fb37f3c14610b305780635bb4780814610ae157806361d2542314610ab85780636723732d14610986578063715018a61461092d57806377e44228146108f4578063803db96d146108cb5780638da5cb5b146108a4578063b05b148414610817578063c45a0155146107ee578063c50250c314610747578063c579535a14610685578063ce89558a146105c1578063d73792a9146105a4578063d889012d1461040b578063df5c30f1146103e2578063e712a35d146103a3578063f2fde38b1461031b578063f3d229ae14610284578063f3f053131461024b578063f9ec04f31461021f5763ff2c682c14610185575f80fd5b3461021c57602036600319011261021c5761019e61166f565b6101a661174a565b600554906001600160a01b039081831661020a57169081156101f8576001600160a01b03191681176005557fbc0a6b1ab2e3de350671c9f3c91c8a51202e82dd34770413ff41446a2489f6918280a280f35b60405163d92e233d60e01b8152600490fd5b60405163a741a04560e01b8152600490fd5b80fd5b503461021c57602036600319011261021c57602061024361023e61166f565b61198b565b604051908152f35b503461021c57602036600319011261021c576020906040906001600160a01b0361027361166f565b168152600a83522054604051908152f35b503461021c57604036600319011261021c5761029e61166f565b6102a6611685565b825490916001600160a01b039182163314158061030d575b6102fc578116801580156102f2575b6101f857835260076020526040832091166001600160601b0360a01b82541617905580f35b50818316156102cd565b6040516282b42960e81b8152600490fd5b5081600654163314156102be565b503461021c57602036600319011261021c5761033561166f565b61033d61174a565b6001600160a01b0390811690811561038a575f54826001600160601b0360a01b8216175f55167f8be0079c531659141344cd1fd0a4f28419497f9722a3daafe3b4186f6b6457e05f80a380f35b604051631e4fbdf760e01b815260048101849052602490fd5b503461021c57602036600319011261021c5760209060ff906040906001600160a01b036103ce61166f565b168152600d84522054166040519015158152f35b503461021c578060031936011261021c576002546040516001600160a01b039091168152602090f35b503461021c5760a036600319011261021c5761042561166f565b61042d611685565b6044359160643560843567ffffffffffffffff81116105a057366023820112156105a057858160040135916104618361172e565b9261046f604051948561170c565b808452366024828401011161059c576024938160209586940184830137010152338652600d815260ff604087205416156102fc5760018060a01b03809316928387526008825260408720941693845f5281526104ce8560405f2061169b565b50916005830180549260ff84161561058a57600285015494603c860295808704603c149015171561057657600301918254948661050b86886117a9565b11610564577f24383946e74fc83de9cf5d9351767ebf3f84d971d62432a2b03a27847ffe99179661053e866040986117a9565b809555841015610557575b50508351928352820152a480f35b60ff191690555f80610549565b6040516304e2210160e01b8152600490fd5b634e487b7160e01b8a52601160045260248afd5b60405163f33650bd60e01b8152600490fd5b8280fd5b8580fd5b503461021c578060031936011261021c5760206040516127108152f35b503461021c57602036600319011261021c576001600160a01b0390604090826105e861166f565b168152600b602052209061068160a060405193610604856116f0565b83815416938486526001820154958660208201526002830154908160408201526005600385015493846060840152600486015416948560808401520154948591015260405196879687929360a09497969591929760c0850198600180881b0380951686526020860152604085015260608401521660808201520152565b0390f35b503461021c57602036600319011261021c5761069f61166f565b6106a7611968565b6001600160a01b03818116808452600b60205260408420600481015491939091831633036102fc576106d89061198b565b8015610735577f86ef7829731d23705c76edb615e2feb99fd3832d911fd10bfca814e372925523926107228284600360409601936107178386546117a9565b8555339154166117b6565b5482519182526020820152a26001805580f35b60405163438281b960e11b8152600490fd5b503461021c57606036600319011261021c5761076161166f565b610769611685565b916044359260018060a01b0380931682526008602052826040832091165f5260205260405f2090815484101561021c575060c0926107a69161169b565b509081541690600181015490600281015460038201549060ff6005600485015494015416936040519586526020860152604085015260608401526080830152151560a0820152f35b503461021c578060031936011261021c576006546040516001600160a01b039091168152602090f35b503461021c57602036600319011261021c576001600160a01b03906040908261083e61166f565b168152600b602090815291902080546001820154600283015460038401546004850154600590950154604080516001600160a01b03968a1687168152978801949094529286019190915260608501529390911616608082015260a081019190915260c090f35b503461021c578060031936011261021c57546040516001600160a01b039091168152602090f35b503461021c578060031936011261021c576003546040516001600160a01b039091168152602090f35b503461021c57602036600319011261021c576020906040906001600160a01b0361091c61166f565b168152600983522054604051908152f35b503461021c578060031936011261021c5761094661174a565b5f80546001600160a01b0319811682556001600160a01b03167f8be0079c531659141344cd1fd0a4f28419497f9722a3daafe3b4186f6b6457e08280a380f35b503461021c5760a036600319011261021c576109a061166f565b6109a8611685565b6001600160a01b036084358181169391926044359260643592869003610ab457846005541633036102fc57841692838752600b602052600160408820015461020a577ff8fdd731e72e470d0d650d2574ba851252cfc50ae3890a4cbab7c20e5b73f76592856040931695610a1e8330338a6117f4565b60058689865193610a2e856116f0565b8a855260208501908782528d898701888152828b60608a019380855260808b0197885260a08b0198428a528152600b60205220985116936001600160601b0360a01b94858a5416178955516001890155516002880155516003870155600486019251169082541617905551910155600c602052878381205582519182526020820152a480f35b5f80fd5b503461021c578060031936011261021c576004546040516001600160a01b039091168152602090f35b503461021c57602036600319011261021c57610afb61166f565b610b0361174a565b600654906001600160a01b039081831661020a57169081156101f8576001600160a01b0319161760065580f35b503461021c57604036600319011261021c57610b4a61166f565b6024359081151590818303610bbf57610b6161174a565b6001600160a01b03169182156101f8577f926d0cb985fcfaca6276c77fffcc49780b680c7ce319b1cd5c359b4e5944989c91610bb5602092858752600d8452604087209060ff801983541691151516179055565b604051908152a280f35b8380fd5b503461021c57604036600319011261021c57610bdd61166f565b8154602435916001600160a01b0391821633141580610c50575b6102fc578215610c3f577f0d86730737b142fc160892fa8a0f2db687a92a0e294d1ad70624cf5acef03b8491602091169283855260098252806040862055604051908152a280f35b60405162bfc92160e01b8152600490fd5b508160065416331415610bf7565b503461021c578060031936011261021c576040517f00000000000000000000000000000000000000000000000000000000000000006001600160a01b03168152602090f35b503461021c57602036600319011261021c57610cbd61166f565b610cc561174a565b600454906001600160a01b039081831661020a57169081156101f8576001600160a01b03191681176004557fdcc3384993519dbffc7b7f128a2e517d09bd867a9839e2b82a14ac36a8bd32878280a280f35b503461021c57604036600319011261021c57610d3161166f565b90610d3a611685565b9060018060a01b03809316815260209160088352836040832091165f52825260405f20928354610d6981611a6b565b94610d77604051968761170c565b81865283528383208390858088015b848410610f2357505050505081805b8551811015610dd55760a0610daa8288611a91565b510151610dc0575b610dbb90611a83565b610d95565b92610dcd610dbb91611a83565b939050610db2565b50929093610de283611a6b565b92610df0604051948561170c565b808452610dff601f1991611a6b565b0182855b828110610ee9575050508391845b8251811015610e725760a0610e268285611a91565b510151610e3c575b610e3790611a83565b610e11565b92610e6a610e3791610e4e8686611a91565b51610e598289611a91565b52610e648188611a91565b50611a83565b939050610e2e565b50939150506040519280840190808552835180925280604086019401925b828110610e9d5785850386f35b8351805188168652808301518684015260408082015190870152606080820151908701526080808201519087015260a09081015115159086015260c09094019392810192600101610e90565b604051610ef5816116f0565b87815287838201528760408201528760608201528760808201528760a0820152828288010152018390610e03565b600191600691604051610f35816116f0565b888654168152848601548382015260028601546040820152600386015460608201526004860154608082015260ff600587015416151560a08201528152019201920191908690610d86565b503461021c57602036600319011261021c57610f9a61166f565b610fa261174a565b600254906001600160a01b039081831661020a57169081156101f8576001600160a01b03191681176002557f95f4f94aa238ab636f38602b066083a1c1a255d3235a54d2368a954e12785cb78280a280f35b503461021c57602036600319011261021c576020906040906001600160a01b0361101c61166f565b168152600c83522054604051908152f35b503461021c57602036600319011261021c576020906001600160a01b03906040908261105761166f565b16815260078452205416604051908152f35b503461021c578060031936011261021c576005546040516001600160a01b039091168152602090f35b503461021c578060031936011261021c5760206040516101f48152f35b503461021c57602036600319011261021c576110c961166f565b6110d161174a565b600354906001600160a01b039081831661020a57169081156101f8576001600160a01b03191681176003557f6f1811d5b64d07afe73e3049cb2b17e23f84fc82374da2eb1e8ef0e6109c12d08280a280f35b503461021c57604036600319011261021c5761113d61166f565b611145611968565b6024351561165d576001600160a01b03811682526009602052604082205415610c3f576001600160a01b03811682526009602052604082205461118b9060243590611775565b907f0000000000000000000000000000000000000000000000000000000000000000906111ba833033856117f4565b6101f4808402908482041484151715611649576127109004846111dd828661179c565b6003549094906001600160a01b03168381611638575b50506001600160a01b03848116835260076020526040832054168015611626575b6001600160a01b03811691826114b9575b505050506001600160a01b0382168552600c60205260408520805461124b9086906117a9565b90556001600160a01b038216808652600c60209081526040808820548151888152928301527f6d55e94db8115ebc6bc8891bb228fb0522606d626e806c732960aa20c670079b91a233855260086020526040852060018060a01b0383165f5260205260405f20604051906112be826116f0565b3382528560208301526024356040830152866060830152426080830152600160a0830152805490680100000000000000008210156114a557906113069160018201815561169b565b9190916114915790600560a061136e93600180831b038151166001600160601b03831b855416178455602081015160018501556040810151600285015560608101516003850155608081015160048501550151151591019060ff801983541691151516179055565b6001600160a01b0382168552600a6020526040852080546113909086906117a9565b905560045485906001600160a01b031680611430575b5050907f56f977d3ca5a61e440f67cd4a3a3e7de5c78ebbbb7cbcb9f2f6c2ac76fbe5acf92606092604051602435815286602082015260018060a01b038416907f3ed2bf47c21ef04d8261f6638602183b8c77e450bcc98f38f6dad80a515f954160403392a36040805196875260208701919091528501526001600160a01b031692a26001805580f35b803b1561148d57818091604460405180948193635ee07f5160e01b83528b60048401523360248401525af1801561148257156113a657611472909392936116c8565b61147e5790845f6113a6565b8480fd5b6040513d84823e3d90fd5b5080fd5b634e487b7160e01b87526004879052602487fd5b634e487b7160e01b88526041600452602488fd5b60405163095ea7b360e01b602082018181526001600160a01b0394909416602483015260448083018a9052825290926114f360648561170c565b83516001600160a01b038416918791829182855af1906115116118d6565b826115f4575b50816115e9575b501561157e575b505050803b1561148d5781906024604051809481936363ec512d60e01b83528960048401525af1801561157357611560575b80808792611225565b61156c909591956116c8565b935f611557565b6040513d88823e3d90fd5b9091929350604051906020820152836024820152886044820152604481526080810181811067ffffffffffffffff8211176115d557916115c88a9594926115cd9460405282611865565b611865565b5f8080611525565b634e487b7160e01b8a52604160045260248afd5b90503b15155f61151e565b8051919250811591821561160c575b5050905f611517565b61161f925060208091830101910161184d565b5f80611603565b506002546001600160a01b0316611214565b61164291836117b6565b5f836111f3565b634e487b7160e01b85526011600452602485fd5b604051631f2a200560e01b8152600490fd5b600435906001600160a01b0382168203610ab457565b602435906001600160a01b0382168203610ab457565b80548210156116b4575f52600660205f20910201905f90565b634e487b7160e01b5f52603260045260245ffd5b67ffffffffffffffff81116116dc57604052565b634e487b7160e01b5f52604160045260245ffd5b60c0810190811067ffffffffffffffff8211176116dc57604052565b90601f8019910116810190811067ffffffffffffffff8211176116dc57604052565b67ffffffffffffffff81116116dc57601f01601f191660200190565b5f546001600160a01b0316330361175d57565b60405163118cdaa760e01b8152336004820152602490fd5b8181029291811591840414171561178857565b634e487b7160e01b5f52601160045260245ffd5b9190820391821161178857565b9190820180921161178857565b60405163a9059cbb60e01b60208201526001600160a01b039290921660248301526044808301939093529181526117f2916115c860648361170c565b565b6040516323b872dd60e01b60208201526001600160a01b03928316602482015292909116604483015260648083019390935291815260a081019181831067ffffffffffffffff8411176116dc576117f292604052611865565b90816020910312610ab457518015158103610ab45790565b5f8061188d9260018060a01b03169360208151910182865af16118866118d6565b9083611905565b80519081151591826118bb575b50506118a35750565b60249060405190635274afe760e01b82526004820152fd5b6118ce925060208091830101910161184d565b155f8061189a565b3d15611900573d906118e78261172e565b916118f5604051938461170c565b82523d5f602084013e565b606090565b9061192c575080511561191a57805190602001fd5b604051630a12f52160e11b8152600490fd5b8151158061195f575b61193d575090565b604051639996b31560e01b81526001600160a01b039091166004820152602490fd5b50803b15611935565b600260015414611979576002600155565b604051633ee5aeb560e01b8152600490fd5b6001600160a01b039081165f818152600b6020526040808220905191949391928591906119b7856116f0565b838254168552600182015490602086019582875260a060056002860154956040840196875260038101549860608501998a52600482015416608085015201549101528115611a61578352600c6020526040832054611a1491611775565b9051918215611a4d5750049151808311611a45575b505190818111611a37575050565b611a4292935061179c565b90565b91505f611a29565b634e487b7160e01b81526012600452602490fd5b5091955050505050565b67ffffffffffffffff81116116dc5760051b60200190565b5f1981146117885760010190565b80518210156116b45760209160051b01019056fea26469706673582212204202dece0b8ea3774909ee2f323f74a03e25f52b95e2f850e6f01c6be3a1e62064736f6c63430008140033","linkReferences":{}},"methodIdentifiers":{"FEE_DENOMINATOR()":"d73792a9","PROTOCOL_FEE_RATE()":"10f0dde4","accumulatedRevenue(address)":"15b4ad30","authorizedBackends(address)":"e712a35d","calculateUnlockableLP(address)":"f9ec04f3","datasetManager()":"61d25423","datasetRentalPools(address)":"122a7d2d","factory()":"c45a0155","getActiveRentals(address,address)":"27964c3b","getLPLockInfo(address)":"ce89558a","hourlyRate(address)":"77e44228","idoContract()":"116f71ac","lockLP(address,address,uint256,uint256,address)":"6723732d","lpLocks(address)":"b05b1484","owner()":"8da5cb5b","protocolTreasury()":"803db96d","purchaseAccess(address,uint256)":"0999f424","recordUsage(address,address,uint256,uint256,bytes)":"d889012d","renounceOwnership()":"715018a6","rentalPool()":"df5c30f1","setAuthorizedBackend(address,bool)":"4fb37f3c","setDatasetManager(address)":"2dc44f5d","setDatasetRentalPool(address,address)":"f3d229ae","setFactory(address)":"5bb47808","setIDOContract(address)":"ff2c682c","setProtocolTreasury(address)":"0c5a61f8","setRentalPool(address)":"218bb93d","totalCollected(address)":"f3f05313","transferOwnership(address)":"f2fde38b","updatePrice(address,uint256)":"457972de","usdc()":"3e413bee","userRentals(address,address,uint256)":"c50250c3","withdrawLP(address)":"c579535a"},"id":41}