{"abi":[{"type":"constructor","inputs":[],"stateMutability":"nonpayable"},{"type":"function","name":"PRECISION","inputs":[],"outputs":[{"name":"","type":"uint256","internalType":"uint256"}],"stateMutability":"view"},{"type":"function","name":"accRevenuePerToken","inputs":[],"outputs":[{"name":"","type":"uint256","internalType":"uint256"}],"stateMutability":"view"},{"type":"function","name":"addRevenue","inputs":[{"name":"amount","type":"uint256","internalType":"uint256"}],"outputs":[],"stateMutability":"nonpayable"},{"type":"function","name":"afterBalanceChange","inputs":[{"name":"user","type":"address","internalType":"address"},{"name":"newBalance","type":"uint256","internalType":"uint256"}],"outputs":[],"stateMutability":"nonpayable"},{"type":"function","name":"authorizedManagers","inputs":[{"name":"","type":"address","internalType":"address"}],"outputs":[{"name":"","type":"bool","internalType":"bool"}],"stateMutability":"view"},{"type":"function","name":"beforeBalanceChange","inputs":[{"name":"user","type":"address","internalType":"address"},{"name":"oldBalance","type":"uint256","internalType":"uint256"}],"outputs":[],"stateMutability":"nonpayable"},{"type":"function","name":"claimDividends","inputs":[],"outputs":[{"name":"amount","type":"uint256","internalType":"uint256"}],"stateMutability":"nonpayable"},{"type":"function","name":"datasetToken","inputs":[],"outputs":[{"name":"","type":"address","internalType":"address"}],"stateMutability":"view"},{"type":"function","name":"getContractBalance","inputs":[],"outputs":[{"name":"","type":"uint256","internalType":"uint256"}],"stateMutability":"view"},{"type":"function","name":"getPendingDividends","inputs":[{"name":"user","type":"address","internalType":"address"}],"outputs":[{"name":"pending","type":"uint256","internalType":"uint256"}],"stateMutability":"view"},{"type":"function","name":"getTotalRevenue","inputs":[],"outputs":[{"name":"","type":"uint256","internalType":"uint256"}],"stateMutability":"view"},{"type":"function","name":"getUserTotalClaimed","inputs":[{"name":"user","type":"address","internalType":"address"}],"outputs":[{"name":"","type":"uint256","internalType":"uint256"}],"stateMutability":"view"},{"type":"function","name":"initialize","inputs":[{"name":"usdc_","type":"address","internalType":"address"},{"name":"datasetToken_","type":"address","internalType":"address"},{"name":"initialOwner_","type":"address","internalType":"address"}],"outputs":[],"stateMutability":"nonpayable"},{"type":"function","name":"owner","inputs":[],"outputs":[{"name":"","type":"address","internalType":"address"}],"stateMutability":"view"},{"type":"function","name":"pendingClaim","inputs":[{"name":"","type":"address","internalType":"address"}],"outputs":[{"name":"","type":"uint256","internalType":"uint256"}],"stateMutability":"view"},{"type":"function","name":"renounceOwnership","inputs":[],"outputs":[],"stateMutability":"nonpayable"},{"type":"function","name":"rewardDebt","inputs":[{"name":"","type":"address","internalType":"address"}],"outputs":[{"name":"","type":"uint256","internalType":"uint256"}],"stateMutability":"view"},{"type":"function","name":"setAuthorizedManager","inputs":[{"name":"manager","type":"address","internalType":"address"},{"name":"authorized","type":"bool","internalType":"bool"}],"outputs":[],"stateMutability":"nonpayable"},{"type":"function","name":"totalClaimed","inputs":[],"outputs":[{"name":"","type":"uint256","internalType":"uint256"}],"stateMutability":"view"},{"type":"function","name":"totalRevenue","inputs":[],"outputs":[{"name":"","type":"uint256","internalType":"uint256"}],"stateMutability":"view"},{"type":"function","name":"transferOwnership","inputs":[{"name":"newOwner","type":"address","internalType":"address"}],"outputs":[],"stateMutability":"nonpayable"},{"type":"function","name":"usdc","inputs":[],"outputs":[{"name":"","type":"address","internalType":"contract IERC20"}],"stateMutability":"view"},{"type":"function","name":"userTotalClaimed","inputs":[{"name":"","type":"address","internalType":"address"}],"outputs":[{"name":"","type":"uint256","internalType":"uint256"}],"stateMutability":"view"},{"type":"event","name":"DividendsClaimed","inputs":[{"name":"user","type":"address","indexed":true,"internalType":"address"},{"name":"amount","type":"uint256","indexed":false,"internalType":"uint256"}],"anonymous":false},{"type":"event","name":"ManagerAuthorizationChanged","inputs":[{"name":"manager","type":"address","indexed":true,"internalType":"address"},{"name":"authorized","type":"bool","indexed":false,"internalType":"bool"}],"anonymous":false},{"type":"event","name":"OwnershipTransferred","inputs":[{"name":"previousOwner","type":"address","indexed":true,"internalType":"address"},{"name":"newOwner","type":"address","indexed":true,"internalType":"address"}],"anonymous":false},{"type":"event","name":"RevenueAdded","inputs":[{"name":"amount","type":"uint256","indexed":false,"internalType":"uint256"},{"name":"accRevenuePerToken","type":"uint256","indexed":false,"internalType":"uint256"}],"anonymous":false},{"type":"error","name":"AddressEmptyCode","inputs":[{"name":"target","type":"address","internalType":"address"}]},{"type":"error","name":"AddressInsufficientBalance","inputs":[{"name":"account","type":"address","internalType":"address"}]},{"type":"error","name":"AlreadyInitialized","inputs":[]},{"type":"error","name":"FailedInnerCall","inputs":[]},{"type":"error","name":"InsufficientBalance","inputs":[]},{"type":"error","name":"NoPendingDividends","inputs":[]},{"type":"error","name":"NoSupply","inputs":[]},{"type":"error","name":"OwnableInvalidOwner","inputs":[{"name":"owner","type":"address","internalType":"address"}]},{"type":"error","name":"OwnableUnauthorizedAccount","inputs":[{"name":"account","type":"address","internalType":"address"}]},{"type":"error","name":"ReentrancyGuardReentrantCall","inputs":[]},{"type":"error","name":"SafeERC20FailedOperation","inputs":[{"name":"token","type":"address","internalType":"address"}]},{"type":"error","name":"Unauthorized","inputs":[]},{"type":"error","name":"ZeroAddress","inputs":[]},{"type":"error","name":"ZeroAmount","inputs":[]}],"bytecode":{"object":"0x6080806040523461007c573315610067575f8054336001600160a01b03198216811783556040519290916001600160a01b0316907f8be0079c531659141344cd1fd0a4f28419497f9722a3daafe3b4186f6b6457e09080a360018055610d8390816100818239f35b631e4fbdf760e01b81525f6004820152602490fd5b5f80fdfe60806040818152600480361015610014575f80fd5b5f92833560e01c9081630a3cb21b14610ada575080630ef4b24814610aa25780632b71fb3a14610a0a5780632c3dcbc7146109255780632e46fed8146108085780633e413bee146108f8578063404b99a7146108955780635873eb9b1461085d5780635a383edc146108405780636268347f1461080857806363ec512d14610656578063668038e01461048a5780636f9fb98a146103f0578063715018a6146103935780638da5cb5b1461036b578063957fae961461026c578063aaf5eb6814610348578063b5713ff71461031f578063b9f8d02c1461028b578063bf2d9e0b1461026c578063c0c53b8b14610198578063d54ad2a1146101755763f2fde38b1461011d575f80fd5b3461017157602036600319011261017157610136610b15565b9161013f610b2f565b6001600160a01b0383161561015b578361015884610b5a565b80f35b51631e4fbdf760e01b8152908101839052602490fd5b8280fd5b5050346101945781600319360112610194576020906008549051908152f35b5080fd5b509034610171576060366003190112610171576101b3610b15565b906024359260018060a01b0391828516809503610268576044359280841684036102645760025460ff81166102565760ff1916600117600255841615801561024e575b61024157505061020590610b5a565b60028054610100600160a81b03191660089290921b610100600160a81b0316919091179055600380546001600160a01b03191691909117905580f35b5163d92e233d60e01b8152fd5b5084156101f6565b50505162dc149f60e41b8152fd5b8680fd5b8580fd5b5050346101945781600319360112610194576020906007549051908152f35b50346101715781600319360112610171576102a4610b15565b60035490916001600160a01b0391821633036103125790670de0b6b3a76400006102d46102ea9354602435610bd6565b0492169182855260056020528385205490610d40565b91826102f4578380f35b61030991845260066020528320918254610bfd565b90555f80808380f35b83516282b42960e81b8152fd5b50503461019457816003193601126101945760035490516001600160a01b039091168152602090f35b50503461019457816003193601126101945760209051670de0b6b3a76400008152f35b505034610194578160031936011261019457905490516001600160a01b039091168152602090f35b83346103ed57806003193601126103ed576103ac610b2f565b80546001600160a01b03198116825581906001600160a01b03167f8be0079c531659141344cd1fd0a4f28419497f9722a3daafe3b4186f6b6457e08280a380f35b80fd5b50903461017157826003193601126101715760025481516370a0823160e01b815230938101939093526020908390602490829060081c6001600160a01b03165afa918215610480578392610449575b6020838351908152f35b9091506020813d8211610478575b8161046460209383610ba0565b81010312610171576020925051905f61043f565b3d9150610457565b81513d85823e3d90fd5b5091903461019457816003193601126101945760026001541461064757600260015560035481516370a0823160e01b815233858201526020936001600160a01b03939290919085908290602490829088165afa90811561063d57829161060e575b50610501670de0b6b3a764000091875490610bd6565b04923382526005855261052b61051a8484205486610d40565b338452600687528484205490610bfd565b9384156105fe57338352600686528284812055600586528383205561055284600854610bfd565b6008553382526009855282822061056a858254610bfd565b905560025460081c1682519163a9059cbb60e01b8684015233602484015284604484015260448352608083019083821067ffffffffffffffff8311176105eb575083526105b79190610c0a565b80518281527f16b8533c95f66ab8c192c98ddcf5031bcb3ee6f4022988bdadd57d3422da3073843392a26001805551908152f35b634e487b7160e01b815260418852602490fd5b8351631495856360e01b81528790fd5b90508481813d8311610636575b6106258183610ba0565b8101031261019457516105016104eb565b503d61061b565b83513d84823e3d90fd5b51633ee5aeb560e01b81529050fd5b509190346101945760208060031936011261017157833590338452600a815260ff8385205416156107f95781156107e95760035483516318160ddd60e01b81526001600160a01b0391839082908990829086165afa9081156107df5786916107b2575b5080156107a257670de0b6b3a76400008402670de0b6b3a763ffff198582040161078f57906106ea91048754610bfd565b86556106f883600754610bfd565b60075560025460081c168351906323b872dd60e01b838301523360248301523060448301528360648301526064825260a0820182811067ffffffffffffffff82111761077c579161076e917f5d22f5d15d95ed39d12130528f910a501ad34deb0428d9227c9d316d9bcb99e99798938752610c0a565b54908351928352820152a180f35b634e487b7160e01b875260418852602487fd5b634e487b7160e01b875260118852602487fd5b8451632b5131d760e21b81528790fd5b90508281813d83116107d8575b6107c98183610ba0565b8101031261026857515f6106b9565b503d6107bf565b85513d88823e3d90fd5b8251631f2a200560e01b81528590fd5b82516282b42960e81b81528590fd5b5050346101945760203660031901126101945760209181906001600160a01b03610830610b15565b1681526009845220549051908152f35b503461017157826003193601126101715760209250549051908152f35b5050346101945760203660031901126101945760209181906001600160a01b03610885610b15565b1681526005845220549051908152f35b5090346101715780600319360112610171576108af610b15565b60035490926001600160a01b0391821633036108eb576108db670de0b6b3a76400009154602435610bd6565b0492168352600560205282205580f35b82516282b42960e81b8152fd5b505034610194578160031936011261019457600254905160089190911c6001600160a01b03168152602090f35b503461017157602092836003193601126103ed57610941610b15565b9060018060a01b03928584600354169360248751809781936370a0823160e01b8352169687868301525afa938415610a00579082918693956109c2575b50670de0b6b3a764000061099a6109bb966109ac935490610bd6565b04848352600588528383205490610d40565b92815260068652205490610bfd565b9051908152f35b809294955087809294503d83116109f9575b6109de8183610ba0565b81010312610171575192918491670de0b6b3a764000061097e565b503d6109d4565b85513d84823e3d90fd5b509034610171578060031936011261017157610a24610b15565b9060243591821515809303610a9e57610a3b610b2f565b6001600160a01b0316928315610a9057507f5f7d4cb639576e1450b98f978822e4bfa5bffa6ef0fcaa8e3ab5b0b1aa0bf04191602091848652600a835280862060ff1981541660ff841617905551908152a280f35b905163d92e233d60e01b8152fd5b8480fd5b5050346101945760203660031901126101945760209181906001600160a01b03610aca610b15565b1681526006845220549051908152f35b849084346101715760203660031901126101715760209260ff91906001600160a01b03610b05610b15565b168152600a855220541615158152f35b600435906001600160a01b0382168203610b2b57565b5f80fd5b5f546001600160a01b03163303610b4257565b60405163118cdaa760e01b8152336004820152602490fd5b5f80546001600160a01b039283166001600160a01b03198216811783559216907f8be0079c531659141344cd1fd0a4f28419497f9722a3daafe3b4186f6b6457e09080a3565b90601f8019910116810190811067ffffffffffffffff821117610bc257604052565b634e487b7160e01b5f52604160045260245ffd5b81810292918115918404141715610be957565b634e487b7160e01b5f52601160045260245ffd5b91908201809211610be957565b60018060a01b0316905f80826020829451910182865af13d15610cd1573d9067ffffffffffffffff8211610cbd5790610c659160405191610c556020601f19601f8401160184610ba0565b82523d84602084013e5b84610cdd565b908151918215159283610c95575b505050610c7d5750565b60249060405190635274afe760e01b82526004820152fd5b8192935090602091810103126101945760200151908115918215036103ed57505f8080610c73565b634e487b7160e01b83526041600452602483fd5b610c6590606090610c5f565b90610d045750805115610cf257805190602001fd5b604051630a12f52160e11b8152600490fd5b81511580610d37575b610d15575090565b604051639996b31560e01b81526001600160a01b039091166004820152602490fd5b50803b15610d0d565b91908203918211610be95756fea2646970667358221220ca9f4c508c50cce83f53d01fad56552ad98f581757d97aa839dce5b24518ccd864736f6c63430008140033","linkReferences":{}},"methodIdentifiers":{"PRECISION()":"aaf5eb68","accRevenuePerToken()":"5a383edc","addRevenue(uint256)":"63ec512d","afterBalanceChange(address,uint256)":"404b99a7","authorizedManagers(address)":"0a3cb21b","beforeBalanceChange(address,uint256)":"b9f8d02c","claimDividends()":"668038e0","datasetToken()":"b5713ff7","getContractBalance()":"6f9fb98a","getPendingDividends(address)":"2c3dcbc7","getTotalRevenue()":"957fae96","getUserTotalClaimed(address)":"2e46fed8","initialize(address,address,address)":"c0c53b8b","owner()":"8da5cb5b","pendingClaim(address)":"0ef4b248","renounceOwnership()":"715018a6","rewardDebt(address)":"5873eb9b","setAuthorizedManager(address,bool)":"2b71fb3a","totalClaimed()":"d54ad2a1","totalRevenue()":"bf2d9e0b","transferOwnership(address)":"f2fde38b","usdc()":"3e413bee","userTotalClaimed(address)":"6268347f"},"id":42}